:100000000C9469000C9488000C9488000C9488006F
:100010000C9488000C9488000C9488000C94880040
:100020000C9488000C9488000C9488000C94880030
:100030000C9488000C9445040C9488000C944A039A
:100040000C94470C0C947D0C0C9401040C940C043F
:100050000C9417040C9488000C9488000C9488006D
:100060000C945E030C9488000C9488000C94880017
:100070000C9488000C9488000C9488000C948800E0
:100080000C9488000C9488000C9488000C948800D0
:100090000C9488000C9488000C9488000C948800C0
:1000A0000C9488000C9488000C9488000C948800B0
:1000B0000C9488000C9488000C9488000C948800A0
:1000C0000C9488000C9488000C94880000020E06A2
:1000D0000C0411241FBECFEFD1E2DEBFCDBF12E072
:1000E000A0E0B2E0E0ECFCE200E00BBF02C0079051
:1000F0000D92AC30B107D9F713E0ACE0B2E001C02B
:100100001D92AC3DB107E1F70E94E1120C945F161D
:100110000C9400008FB7F894992708958FBF089525
:10012000282F9FB7F894E82FFF27ED5CFD4F8081C3
:100130008F3F81F4E091D403E21771F40BC0209358
:10014000350304C0FF27ED5CFD4F20832093D403CB
:1001500020E007C025E005C0809135038F3F91F76F
:10016000EECF892F99278FBF822F99270895882353
:1001700019F08CB5806402C08CB58F7B8CBD08955E
:10018000882319F08CB5806802C08CB58F778CBD40
:1001900008950F931F9380E00E94B7000FB7F89463
:1001A0001127229A2398219A209A8CB580618CBDC0
:1001B00080E00E94C0008CB5877F8CBD8CB58B7FA2
:1001C0008CBD81E00E94B7008DB581608DBD8CB57E
:1001D0008C7F8CBD0FBF1F910F9108950F931F93BC
:1001E000CF93DF93182F0FB7F89480911C028823C8
:1001F00011F40E94C900802F99278FBF8FB7F89400
:10020000C82FDD272C2F80911C02882361F481E008
:1002100080931C02109357028CE00E949000CFBF85
:1002200080E090E021C0E12FFF27EA5AFD4F808156
:100230008F3F89F4E0910902E11789F40CC0109313
:10024000080204C0FF27EA5AFD4F108310930902E9
:1002500080E090E002C085E090E02FBF05C0809173
:1002600008028F3F79F7EBCFDF91CF911F910F916C
:1002700008958FB7F894282F3327922F80910A0280
:10028000882331F480911C02823011F42FBF13C0F7
:100290009FBF8FB7F894282F332780911C028823A3
:1002A00069F482E080931C0210920A022FBF0E9420
:1002B000C900209A289A81E090E008952FBF80E03D
:1002C0000E94EE0080E090E00895FB0121E030E024
:1002D00002C0220F331F8A95E2F784A5822B84A7E0
:1002E00008958FB7F8942091C9023091CA024091C5
:1002F000CB025091CC02E0918400F0918500B09B3C
:1003000008C02F5F3F4F4F4F5F4FE0918400F09147
:10031000850099278FBFC901772766279F0144274A
:100320005527622B732B842B952B0895FC0182811A
:100330009927982F882721813327822B932B25E01B
:10034000969587952A95E1F7817090700895AC0194
:10035000EFB7F8942091840030918500C901841B87
:10036000950B03968617970720F0B9016D5F7F4FB5
:1003700002C0640F751F6115710511F461E070E032
:1003800061507040709389006093880082E086BB62
:1003900080916F00826080936F008E2F99278FBFAE
:1003A000089580933E03882311F484E001C081E026
:1003B00080934C0285E00E9490000895CF93DF93D4
:1003C000EC010E949601882339F18A8129819927BD
:1003D000982F88273327822B932B87749C7C8154FA
:1003E0009848D1F48F814E812FB7F89433276091CC
:1003F0000202709103022FBF20E09927982F8827CF
:100400005527842B952B8617970709F021E081E06B
:100410002827822F992702C080E090E0DF91CF91BA
:100420000895FB0121E030E002C0220F331F8A95BE
:10043000E2F784A582239927089521E020935802AA
:100440002093EA022091840030918500BC01C9010B
:100450000E94A7010895EF92FF920F931F937C01D2
:100460008FB7F89499270091EF021091F0020F5E78
:100470001E4F1093F0020093EF02015111408FBF05
:1004800087E00E949000C801B7010E94EE158A5DC6
:100490009E4F1F910F91FF90EF9008957FB7F894B2
:1004A0006091B20020912E0230912F0240913002D3
:1004B00050913102B99B11C08091B3009091B2006C
:1004C000280F311D411D511D2F5F3F4F4F4F5F4F73
:1004D000290F311D411D511D04C0260F311D411D25
:1004E000511D872F99278FBFCA01B9010895DF9247
:1004F000EF92FF920F931F938FB7F894282F332713
:10050000D22E9091B3008091B20047B3981711F0AA
:1005100041FF02C02FBF71C080914E028823E1F1DC
:100520000E944E02E0902702F090280200912902DA
:1005300010912A0220913A0330913B0340913C03F1
:1005400050913D036E197F09800B910B6217730761
:100550008407950720F010924E0271E01EC02E0D08
:100560003F1D401F511F80912E0290912F02A0919C
:100570003002B0913102281B390B4A0B5B0B273E2E
:1005800031054105510540F4822F223010F070E012
:1005900005C070E082E002C070E086EE682F615016
:1005A0008091B60083FDFCCF8091B200681709F4FA
:1005B0006F5F20912E0230912F02409130025091B6
:1005C0003102DA01C9010196A11DB11D860F911DED
:1005D000A11DB11D82179307A407B50710F4622F60
:1005E00060958091B60083FDFCCF6093B300DFBEC1
:1005F000772319F088E00E9490001F910F91FF90DF
:10060000EF90DF900895AFB7F894BB27E1E0E09357
:100610004E026093270270932802809329029093E0
:100620002A0220933A0330933B0340933C035093B8
:100630003D03AFBF0E94770208950895DF92EF92C5
:10064000FF920F931F93D82E7A018B010E944E02C6
:1006500029E0D29EF0011124E353FD4F60837183A2
:1006600082839383E482F5820683178380858E7F5D
:100670008260808789E00E9490001F910F91FF9017
:10068000EF90DF9008956D3118F080E090E00895CC
:100690000C9608951F920F920FB60F9211248F930C
:1006A0008091B0008093B0008091B60081FDFCCFB6
:1006B0008F910F900FBE0F901F9018951F920F9261
:1006C0000FB60F9211240F931F932F933F934F93C5
:1006D0005F936F937F938F939F93AF93BF93CF93CA
:1006E000DF93EF93FF932EB5E091E802F091E902DA
:1006F000309739F08091B8029091B902E80FF91F54
:1007000020838091B8029091B90201969093B9022A
:100710008093B80280E00E94C000C091B802D091DE
:10072000B90220911F0230912002C217D30708F0AE
:1007300042C00091CC031091CD034091E80250914A
:10074000E902CE010A962817390708F4C901DA012F
:10075000AC0FBD1FF801EC0FFD1F9C012150304074
:1007600015C00115110531F080818EBD0DB407FE55
:10077000FDCF04C01EBC0DB407FEFDCF8EB54115E4
:10078000510509F08C93219611963196C217D30723
:1007900040F381E00E94C0000115110531F00C0FFB
:1007A0001D1FF80180818EBD01C01EBCD093B9020F
:1007B000C093B80211C01092E9021092E8021092A0
:1007C000CD031092CC031092200210921F021092BF
:1007D000B9021092B8028EB5FF91EF91DF91CF91DF
:1007E000BF91AF919F918F917F916F915F914F9149
:1007F0003F912F911F910F910F900FBE0F901F905F
:10080000189578941F920F920FB60F9211240F90A3
:100810000FBE0F901F90189578941F920F920FB6ED
:100820000F9211240F900FBE0F901F90189578947F
:100830001F920F920FB60F9211242F933F938F9315
:100840009F93AF93BF932FB7F89433278091C9023A
:100850009091CA02A091CB02B091CC020196A11D49
:10086000B11D8093C9029093CA02A093CB02B093AA
:10087000CC022FBFBF91AF919F918F913F912F914C
:100880000F900FBE0F901F9018951F920F920FB6EA
:100890000F9211242F933F934F935F936F937F9306
:1008A0008F939F93AF93BF93EF93FF938091B0008B
:1008B0008093B0008091B60081FDFCCF8091B300A1
:1008C00099270196AA27BB2720912E0230912F024B
:1008D0004091300250913102280F391F4A1F5B1F8F
:1008E00020932E0230932F02409330025093310216
:1008F00078940E947702FF91EF91BF91AF919F9101
:100900008F917F916F915F914F913F912F910F90B8
:100910000FBE0F901F9018950F931F93982F1FB71E
:10092000F89480911C02823099F580910A0289170F
:1009300079F58091080220E030E08F3F11F421E04A
:1009400030E0232BF1F49FEF90930A028F3F19F4CC
:100950002FEF30E00DC0282F3327F901EA5AFD4F61
:100960008081809308028F3F11F490930902908355
:100970002093570281E080931C028CE00E9490003B
:1009800005C08FEF80930A0210921C0201E001C0A3
:1009900000E0812F99278FBF1FB7F89480911C0228
:1009A000882311F40E94B700812F99278FBF90E010
:1009B000013009F491E081E09827892F99271F9150
:1009C0000F910895AF92BF92CF92DF92EF92FF9274
:1009D0000F931F93CF93DF935B016C01C0E0D0E0D6
:1009E000EDECF2E0608561FF54C0208131814281ED
:1009F0005381E480F58006811781D601C501821BF1
:100A0000930BA40BB50B8E159F05A007B10708F437
:100A100040C060FF03C06D7F608708C02E0D3F1D82
:100A2000401F511F2083318342835383C130C9F05B
:100A3000C13018F0C23099F528C080910E02909113
:100A40000F02A0911002B09111020097A105B1050B
:100A500011F480E01BC08091D5028D7F8093D50278
:100A60001EC08091120290911302A0911402B091C5
:100A700015020097A105B10511F481E007C080912E
:100A8000DE028D7F8093DE020AC082E00E94900029
:100A900006C021963996C330D10509F0A3CF89E06D
:100AA0000E949000DF91CF911F910F91FF90EF90E6
:100AB000DF90CF90BF90AF9008951F93982F1FB7EE
:100AC000F89480911B02823099F580910702891772
:100AD00079F58091050220E030E08F3F11F421E0AC
:100AE00030E0232BF1F49FEF909307028F3F19F42E
:100AF0002FEF30E00DC0282F3327F901E85BFD4FC1
:100B00008081809305028F3F11F4909306029083B9
:100B10002093450281E080931B0283E00E949000B5
:100B200005C08FEF8093070210921B0221E001C0E5
:100B300020E0812F99278FBF90E0213009F491E0C8
:100B400081E09827892F99271F91089580914C0261
:100B5000823031F481E080934C0285E00E94900065
:100B600008954F925F926F927F928F929F92AF9271
:100B7000BF92CF92DF92EF92FF920F931F93CF938A
:100B8000DF932C0180911E02882309F083C180919C
:100B9000CE03853009F07EC10E943901882309F413
:100BA00079C180912603882309F074C1B20182E0E3
:100BB0000E941102882311F490E003C0F20196A56F
:100BC0009F7080918802981781F0909388022898EE
:100BD00085EC8EBD0DB407FEFDCF8EB590689EBD31
:100BE0000DB407FEFDCF8EB5289AE20121968981CA
:100BF000F201218140E09927982F88273327822B03
:100C0000932B87749C7C8154984809F441E04423D9
:100C100001F1289886E88EBD0DB407FEFDCF8EB594
:100C20001EBC0DB407FEFDCF8EB5289A99278F7193
:100C300090702091530240914902240F312D311DB3
:100C400043E0359527954A95E1F7281739070CF4C5
:100C500021C1289882EC8EBD0DB407FEFDCF8EB564
:100C600089E08EBD0DB407FEFDCF8EB5289A0E9497
:100C700071017B018C01B20184E00E941102882382
:100C800019F4E0E0F0E006C0D2018C918550F20149
:100C9000E80FF11D289881E88EBD0DB407FEFDCF49
:100CA0008EB51EBC0DB407FEFDCF8EB5289A8F7190
:100CB000893079F0289882EC8EBD0DB407FEFDCF07
:100CC0008EB586E08EBD0DB407FEFDCF8EB5289A99
:100CD000E1C08FB7F89499272F9A20918400309122
:100CE00085008FBF2F98289880E68EBDD2019C91F9
:100CF0000DB407FEFDCF8EB59EBD792F72507730B3
:100D000010F4672F01C067E0DE01962F4D910DB4FE
:100D100007FEFDCF8EB54EBD9150C1F76150C60F95
:100D2000D11D6F5F21962E193F092E553F4F390176
:100D3000882477FC8094982C6E0C7F1C801E911E5A
:100D4000309719F4972F961B42C02081E180828151
:100D5000A3809927AA27BB27BA2FA92F982F8827C6
:100D6000332744275527522F442733272227FF2490
:100D7000002711278701FF24EE242E293F29402B2D
:100D8000512BBB24CC24DD242A293B294C295D2965
:100D9000822B932BA42BB52B86199709A809B90987
:100DA0008383292F3A2F4B2F552722839D014427D8
:100DB000552721838B2F9927AA27BB278083C2CF52
:100DC00028810DB407FEFDCF21968EB52EBD915022
:100DD000B8F70DB407FEFDCF8EB5289A289882EC9F
:100DE0008EBD0DB407FEFDCF8EB586E08EBD0DB471
:100DF00007FEFDCF8EB5289A3097D1F12081E18092
:100E00008281A3809927AA27BB27BA2FA92F982FC1
:100E10008827332744275527522F44273327222753
:100E2000FF24002711278701FF24EE242E293F29C4
:100E3000402B512BBB24CC24DD242A293B294C29CF
:100E40005D29822B932BA42BB52B860D971DA81DF6
:100E5000B91D8383292F3A2F4B2F552722839D01BC
:100E60004427552721838B2F9927AA27BB278083C7
:100E7000B20181E00E946501F20160A671A682A61E
:100E800093A686E08093CE0384E080931E0280E0E8
:100E900090E002C085E090E0DF91CF911F910F912B
:100EA000FF90EF90DF90CF90BF90AF909F908F908A
:100EB0007F906F905F904F900895AF92BF92CF92C6
:100EC000DF92EF92FF920F931F93CF93DF93809166
:100ED0002603882309F402C10E943901882309F4FA
:100EE000FDC08FB7F8949927C0915402D091550254
:100EF0008FBF1092260328988FE88EBD0DB407FE91
:100F0000FDCF8EB51EBC0DB407FEFDCF8EB5289A61
:100F1000982F80911E02833011F0873031F485E0E4
:100F20008093CE0388E080931E02A92EBB24A2FEEC
:100F300063C080911E02863019F410921E0203C015
:100F4000882309F059C0943009F045C0289886E8F4
:100F50008EBD0DB407FEFDCF8EB51EBC0DB407FED1
:100F6000FDCFFEB4289A2FE1F22280914902982FFA
:100F700096959695EF2DE91B8E0F8093490200916F
:100F80002B0210912C02F80184A58B7F84A7B80155
:100F900083E00E946501F801F6A60E9471017B01C1
:100FA0008C01C0902B02D0902C02B60181E00E94EF
:100FB0006501CE19DF092797CE01AA2797FDA095D5
:100FC000BA2F8E0D9F1DA01FB11FF60180A791A7FC
:100FD000A2A7B3A70EC0E0912B02F0912C0284A52A
:100FE000877F84A7E0912B02F0912C0284A58D7F4E
:100FF00084A785E080931E02A3FE70C080911E022C
:10100000843009F04EC085E08093CE0310921E021A
:1010100080912D02833019F410922D025FC0C0918F
:10102000D503D091D603CE010E949601882389F181
:101030008A8129819927982F88273327822B932B00
:1010400087749C7C8154984821F58F812E81992743
:10105000982F88273327822B932B8F5F9F4FC9F0C0
:1010600090E08091EA02882309F491E0992389F0C5
:1010700012E01093580281E08093EA02809184008C
:101080009091850069E973E00E94A70110932D02F9
:1010900025C010922D0210924D0280E00E94D101D5
:1010A0001DC08530D9F420915302289886E88EBD62
:1010B0000DB407FEFDCF8EB51EBC0DB407FEFDCFEF
:1010C0008EB5289A8F71922F96959695891B280F29
:1010D0002093530289E080931E0208C090911E0263
:1010E000992309F4E6C2993009F013C2289880E2E6
:1010F0008EBD0DB407FEFDCF8EB51EBC0DB407FE30
:10110000FDCF8EB5482F5527433008F497C3842F61
:1011100099278A970CF092C31EBCE0912B02F091A4
:101120002C024083142F1250173010F4912F01C05D
:1011300097E0BF016F5F7F4F292FFB0140E050E038
:101140000DB407FEFDCF8EB51EBC8083819148276C
:10115000042E4295407F4025052E542F42954F7016
:101160000426469554274527440F440F440F402535
:10117000215031F79150DB01A90FB11D9F5F1196EE
:10118000E0912B02F0912C0281818770823009F46A
:1011900021E0222349F020E030E080912D028230CE
:1011A00081F421E030E00DC08FB7F894282F332769
:1011B00060E080912003833008F461E02FBF262F88
:1011C0003327232B09F45CC0191B912F18C00DB4D1
:1011D00007FEFDCF8EB51EBC8C938D914827042E43
:1011E0004295407F4025052E542F42954F7004268E
:1011F000469554274527440F440F440F40259150EE
:1012000030F70DB407FEFDCF8EB51EBC9A0128271E
:10121000022E2295207F2025032E322F22952F701B
:101220000226269532272327220F220F220F202560
:101230000DB407FEFDCF8EB51EBC2827022E2295C9
:10124000207F2025032E322F22952F7002262695EF
:1012500032272327220F220F220F20250DB407FE4D
:10126000FDCF8EB5E0912B02F0912C0285A7289A34
:1012700015E01093CE0310921E02232B31F015C2FD
:101280000DB407FEFDCF8EB5D9C2E0902B02F090D1
:101290002C0267010894C11CD11CF701818190E0E8
:1012A000282F3327277030702230310509F491E060
:1012B00080912D02992321F1823009F025C1F70197
:1012C0009381E091D503F091D6038381981709F0BB
:1012D0001BC12230310509F017C180916F008D7F4D
:1012E00080936F001092EA02BF0180E00E946501C6
:1012F00010922D0210924D0280E00E94D10104C193
:101300008823C9F4C7010E94DE018823A1F010934D
:10131000890282E080938A0210928B02F701838116
:1013200080938C0289E892E00E94B105882319F429
:1013300083E080932D020091840010918500C70105
:101340000E94DE01882311F0045E1C4F1093C60238
:101350000093C50280918400909185009801281B1C
:10136000390B12161306A4F480914D02882369F4F8
:1013700090E08091EA02882309F491E0992341F0FA
:10138000C9010E941D0280E801C0806880934D025F
:10139000F601808527819927582F44273327422B30
:1013A000532B80913202282F3327F901EE0FFF1FB4
:1013B000E95DFC4F808191817091EB028417950764
:1013C00069F4F901E153FC4F8081871709F467C084
:1013D000872F8F5F8093EB0280831DC000E010E0B9
:1013E00080E090E0C7E2D3E0EFECF3E0DF01682FAC
:1013F0009C01888199818417950779F420933202A2
:101400009091EB028C91891709F449C0892F8F5F65
:101410008093EB028C9300E829C08081972F981B62
:10142000091710F4092F122F6F5FC9010196119649
:101430002296319685309105D1F66530B9F4109336
:101440003202A12FBB27FD01EE0FFF1FE95DFC4F0C
:10145000518340838091EB028F5F8093EB02FD010B
:10146000E153FC4F8083A952BC4F1C929091EB0238
:10147000892F8F778F3779F40F3768F0EFECF3E02F
:10148000292F207880818F6789132083319683E00C
:10149000E43DF807B9F780913202282F3327F6018F
:1014A0009281A22FBB27FD01E952FC4F808180FF72
:1014B00007C0FD01EF5DFC4F8081981729F102C044
:1014C00081608083AF5DBC4F9C93DFB6F8948091C0
:1014D00020038330B0F4E0913803E80FE33008F0E4
:1014E000E350FF27EE0FFF1FEF5DFD4F00811181DD
:1014F000F182E0828F5F8093200386E00E9490005B
:1015000078018D2D99278FBFF0922C02E0922B024B
:10151000C3C0892F8150833008F09CC08150823035
:10152000E0F43091CE033130C1F420E08091EA0242
:10153000882309F421E0222381F02F9883E080930F
:1015400058023093EA0280918400909185006BE20A
:1015500073E00E94A70182E068C0933009F042C0A6
:101560008091CE03833009F097C00E94390188230F
:10157000C9F128988FE88EBD0DB407FEFDCF8EB55A
:101580001EBC0DB407FEFDCF8EB5289A8091810058
:1015900080648093810080E286BB80916F008062CE
:1015A00080936F0090914402289888EC8EBD0DB412
:1015B00007FEFDCF8EB590669EBD0DB407FEFDCF34
:1015C0008EB5289A289882EC8EBD0DB407FEFDCF0B
:1015D0008EB586E08EBD0DB407FEFDCF8EB5289A80
:1015E00084E023C080911E028150823000F58091FA
:1015F000CE038530E1F40E9439018823C1F0289898
:1016000082EC8EBD0DB407FEFDCF8EB583E08EBD9E
:101610000DB407FEFDCF8EB5289A80916F008F7DA7
:1016200080936F001092260383E08093CE03909105
:101630001E02913041F48091CE038330B1F52F9A90
:101640009093CE0325C0923039F58091CE0383303C
:1016500061F51EC0973001F50E9439018823E1F041
:1016600090914402289888EC8EBD0DB407FEFDCF02
:101670008EB590669EBD0DB407FEFDCF8EB5289A3F
:101680008091CE03853021F484E08093CE0304C0A2
:1016900088E080931E0204C080911E02883029F4E5
:1016A00010921E0284E00E94900080911E02882306
:1016B00009F58091CE038530D1F4809126038823EB
:1016C000B1F480912D02882391F480914D028823FA
:1016D00071F490E08091EA02882309F491E0992363
:1016E00031F00E94A60580911E02882319F48AE039
:1016F0000E9490008091EA02823009F092C010921C
:10170000EA02F0905802F2E0FF1609F466C023E006
:10171000F21609F46AC081E0F81609F082C020913F
:10172000C5023091C602809184009091850040915D
:101730004D02403829F410924D020E94A60571C056
:101740008901081B190B47FF03C010161106ECF0A6
:10175000C0914A02D0914B0280912D028823A9F4B6
:10176000CE010E94B1059927882351F48CA58E7F64
:101770008CA7F0922D02D093D603C093D50329C035
:101780009927F82E882329F102C065E0F62E2091D2
:101790004D02822F99278F77019759F42078226084
:1017A00020934D0280E198E00E942B020E941D02CE
:1017B00038C027FF0AC0101611063CF480E8809359
:1017C0004D02C8010E941D0202C010924D028F2DD1
:1017D00009C083E080934D0224C010922D02109224
:1017E0004D0280E00E94D1011CC08091CE03823066
:1017F00019F4F092CE0313C080911E02863079F462
:1018000010921E02289881E88EBD0DB407FEFDCF10
:101810008EB51EBC0DB407FEFDCF8EB5289A0E9472
:10182000330C8FB7F894282F3327809143028130EF
:1018300061F081E0809343022FBF49CB289A85E075
:101840008093CE0310921E0230CF109243022FBF1E
:10185000DF91CF911F910F91FF90EF90DF90CF908C
:10186000BF90AF9008958FB7F894282F33278091B9
:101870004302882329F08068809343022FBF089594
:1018800081E0809343022FBF0E945D070895789402
:101890001F920F920FB60F9211242F933F934F93E5
:1018A0005F936F937F938F939F93AF93BF93EF93C8
:1018B000FF93E6E8F0E080819181208131818FB74C
:1018C000F8949927309355022093540221E02093F5
:1018D00026038FBF0E94330CFF91EF91BF91AF9110
:1018E0009F918F917F916F915F914F913F912F9138
:1018F0000F900FBE0F901F90189578941F920F9223
:101900000FB60F9211242F933F934F935F936F93D2
:101910007F938F939F93AF93BF93EF93FF938091A8
:101920006F008D7F80936F0078949FB7F8948091BB
:10193000EA02813019F482E08093EA02892F992724
:101940008FBF0E94330CFF91EF91BF91AF919F9198
:101950008F917F916F915F914F913F912F910F9058
:101960000FBE0F901F9018958FB7F894282F33272C
:1019700080914302815080934302803811F02FBF41
:10198000089581E0809343022FBF0E945D07089570
:101990001F938FB7F8949927209143022F5F2093CC
:1019A00043028FBF80914C02882311F015E023C0C1
:1019B00080911E028823E1F48091CE03813049F4A6
:1019C00090E08091EA02882309F491E0992381F064
:1019D00005C0853019F489E090E00CC083E0809365
:1019E0001E020E94330C85E080934C0210E003C07D
:1019F00085E090E0182F0E94B40C812F99271F9149
:101A000008951F93FC018FE3828780911D028F5FF1
:101A100080931D0283832FB7F8943327809143026C
:101A20008F5F809343022FBF80914C02882311F077
:101A300015E00DC0F093EE02E093ED0281E080939B
:101A40004C021092EC0285E00E94900010E00E948F
:101A5000B40C812F99271F9108951F93CF93DF9383
:101A6000182FFA01A22F2D3118F086E090E08EC0D9
:101A7000EA01219689812181B0E09927582F4427D6
:101A80003327422B532BCA0187749C7C815498487E
:101A900009F4B1E0BB2349F4CA01807390708164FA
:101AA00098688183892F99278983A35FA0832FB7A3
:101AB000F894332780910202909103022FBF808710
:101AC000892F992781872FB7F894332780910402B3
:101AD0002FBF99278483158213876683872F9927C1
:101AE00087838FB7F894282F332780911B02882390
:101AF00071F482E080931B02109207022FBFCF0186
:101B00000E94010D9927182F882399F00FC02FBF2D
:101B1000F0934702E09346028FB7F894C82FDD2771
:101B20002C2F80911B02882399F406C080E00E942C
:101B30005D05812F99272AC081E080931B021092B6
:101B4000450283E00E949000CFBF80E090E01EC07D
:101B5000809148028F3F89F4E0910602EE2369F0FC
:101B600010C01092050204C0FF27E85BFD4F1082F1
:101B70001092060280E090E002C085E090E02FBF66
:101B800005C0809105028F3F79F7EBCFDF91CF91B0
:101B90001F910895CF93DF93FB01DB011696868397
:101BA000892F9927ED01898386E083878091C70279
:101BB0009091C802892B19F085E090E02BC0F0933A
:101BC000C802E093C702435F40834D5080910B02EF
:101BD000882319F480E090E01DC08385ED016981C0
:101BE0007727762F662726813327622B732B109257
:101BF0000B02242FAF010E942D0D9927282F882337
:101C000039F081E080930B021092C8021092C70253
:101C1000822F9927DF91CF9108951F93CF93DF9360
:101C2000182FEB01E82FFF27EE0FFF1FE953FD4FA1
:101C30001182108210920B02E091C702F091C8024B
:101C4000309721F08091390380FF0FC081E08093AD
:101C50000B0203C08EE00E9490001123C1F4C15F0B
:101C6000D240A9F410920C0212C020812D503327CB
:101C700067817727762F662786819927682B792BAE
:101C8000AF0183850E942D0D882339F3E3CFDF91C7
:101C9000CF911F9108952F923F924F925F926F9232
:101CA0007F928F929F92AF92BF92CF92DF92EF92EC
:101CB000FF920F931F93CF93DF93CDB7DEB7649757
:101CC0000FB6F894DEBF0FBECDBF182F873009F4D2
:101CD00089C2883098F4833009F4AEC0843038F477
:101CE000813009F451C0823008F07AC024C08530B8
:101CF00009F4E3C0863008F03EC1CFC08B3009F450
:101D000052C38C3038F4893009F4FBC28A3008F0B1
:101D1000E7C3C4C28D3039F08D3008F459C38E301A
:101D200009F019C407C480913903882309F413C446
:101D300040E051E0DEC380910C02882309F00BC41F
:101D40006BE081EF92E00E944303FC01892B09F4D0
:101D500002C482E0808380910002818380910D0221
:101D6000828316821582148213821286118610864F
:101D700017824BE061EF72E08FEF9FEF0E94CA0D78
:101D8000882309F0E8C354C080910C02882309F02D
:101D9000E2C36BE081EF92E00E944303FC01892BD8
:101DA00009F4D9C384E0808380910002818380910B
:101DB0000D02828381E186838583848383831286F7
:101DC0001186108617824BE061EF72E08FEF9FEF74
:101DD0000E94CA0D882309F0BEC310930C02BBC336
:101DE00080910C02882309F0B6C36BE081EF92E08A
:101DF0000E944303FC01892B09F4ADC386E0808374
:101E000080910002818380910D0282831682158267
:101E10001482138212861186108617824BE061EFBE
:101E200072E08FEF9FEF0E94CA0D882309F093C3E1
:101E300081E080930C028FC32FB7F89433278091F1
:101E400045028093070282E080931B022FBF80919E
:101E50000702882309F07FC38091460290914702D0
:101E60000E94010D082F1127002309F474C380E09C
:101E70000E945D05209146023091470280910B023D
:101E8000882309F068C36091C7027091C802621785
:101E9000730709F060C3402F58C380914C02109221
:101EA0004C02853009F457C3863009F454C3873097
:101EB00009F451C380934C024EC32FB7F8943327D3
:101EC000809143028F5F809343022FBF40914C0269
:101ED000413081F58091EC028F5F8093EC02863077
:101EE00048F52091ED023091EE0280914D02882359
:101EF000C1F490E08091EA02882309F491E09923EB
:101F000081F030934B0220934A0240934D028BEDB7
:101F100091E10E942B020E941D0210923E0383E079
:101F200004C085E080933E0382E080934C020E94CF
:101F3000B40C11C310924C020E94B40CF0903E03FA
:101F40000091ED021091EE02F80182858F3309F0C5
:101F500002C380E00E945D0580910B02882309F096
:101F6000FAC26091C7027091C8026017710709F048
:101F7000F2C24F2DEAC28FB7F894282F33278091F1
:101F80002003882309F4B3C2E0913803FF27EE0F42
:101F9000FF1FEF5DFD4FC080D1802FBFF60182850E
:101FA000978126818F3309F0E7C063857081892F7F
:101FB0009927582F4427822F9927482B592B8FB7C1
:101FC000F894992720910202309103028FBF4217A3
:101FD000530721F04F5F5F4F09F0E8C0663009F00A
:101FE000E5C0783109F0E2C0AAEBB2E0F6013C9618
:101FF0008BE001900D928150E1F7DE011196EAEB42
:10200000F2E08BE001900D928150E1F7BB847A857C
:10201000F9855885EF81EE806D814C812B819A8105
:102020008981813059F490930D0210980E941D030C
:1020300048EE53E060E070E080E041C0833009F09A
:1020400041C033278091000290910102281739077F
:1020500009F0ACC0FF2400271127102F0F2DFE2CF4
:10206000EE24242F332744275527522F4427332784
:102070002227862F9927AA27BB27DC0199278827A3
:10208000282B392B4A2B5B2B8E2F9927AA27BB276E
:10209000282B392B4A2B5B2BE22AF32A042B152BF6
:1020A000E0920E02F0920F020093100210931102C0
:1020B0000E941D0348EE53E060E070E081E00E9462
:1020C0001E0374C0853009F071C03327809100026F
:1020D000909101022817390709F068C0E72EFF2404
:1020E00000271127102F0F2DFE2CEE24252F33272C
:1020F00044275527522F4427332722278F2F9927EC
:10210000AA27BB27DC0199278827282B392B4A2BA4
:102110005B2B8B2D9927AA27BB27282B392B4A2BE2
:102120005B2BE22AF32A042B152BE0921602F09285
:1021300017020093180210931902109880910E0252
:1021400090910F02A0911002B0911102E826F92699
:102150000A271B2765E5E61663E1F60668E0060731
:1021600060E8160719F581E080931A0248EE53E003
:1021700060E070E082E0A3CF892F9927582F442791
:10218000822F9927482B592B8FB7F89499272091A4
:102190000202309103028FBF4217530719F04F5FBD
:1021A0005F4F21F48FB7F89499278FBF9FB7F894AA
:1021B00080913803E82FFF27EE0FFF1FEF5DFD4FE3
:1021C000D182C0828F5F80933803833010F01092E9
:1021D000380380912003815080932003892F992711
:1021E0008FBFC9CEEFB7EC87F89420904F023090A4
:1021F0005002409051025090520266247724882465
:102200002EE4A22E93E8B92ECC24DD24EE24FF2464
:1022100000E010E0222D332D442D552D662D772D15
:10222000882D90E00E946D142D873E874F87588B34
:10223000698B7A8B8B8B9C8B822E932EA42EB52E42
:102240002401350100E20E946B15A22EB32EC42E8C
:10225000D52EA301920156954795379527952A0DBE
:102260003B1D4C1D5D1D57FF05C05F772F5F3F4F26
:102270004F4F5F4F20934F023093500240935102D3
:1022800050935202FC858F2F99278FBF8FB7F894F8
:1022900099273093F0022093EF0298C08091420278
:1022A000882361F52091310330913203409133034B
:1022B00050913403EFB7F894FF2760912702709193
:1022C00028028091290290912A02E0903A03F0902E
:1022D0003B0300913C0310913D036E0D7F1D801F59
:1022E000911FEFBF209331033093320340933303A8
:1022F00050933403109242020E9403030E944E0244
:102300003FC00E944E025B016C018FB7F894992781
:1023100010924E028FBF2FEF3FEF4FEF5FE760E06D
:10232000EDECF2E0808581FF1CC080819181A2816B
:10233000B38186017501E81AF90A0A0B1B0BD80153
:10234000C701E480F58006811781E81AF90A0A0BB3
:102350001B0BE216F306040715071CF4A8019701EE
:1023600061E0399602E0E83EF007E1F6662309F401
:10237000F2C012161306140615062CF0C601B5019C
:102380000E94E204E8C0209331033093320340936B
:1023900033035093340381E080934202C601B501B8
:1023A0000E940303D8C08FB7F89499271092E902CE
:1023B0001092E8021092CD031092CC0310922002EA
:1023C00010921F021092B9021092B8028FBFC3C0C0
:1023D0002FB7F89433278091570280930A0282E046
:1023E00080931C022FBF80910A02882309F0B3C09A
:1023F000209A289A8091CE03882309F075C08EEF29
:1024000091E0019701960197E1F716982F9886E0E1
:1024100090E0019701960197E1F7169A289883ECCE
:102420008EBD0DB407FEFDCF8EB51EBC0DB407FEEC
:10243000FDCF8EB5289A289882EC8EBD0DB407FE8C
:10244000FDCF8EB588E08EBD0DB407FEFDCF8EB5F5
:10245000289A8EEF91E0019701960197E1F728986D
:102460008EEC8EBD0DB407FEFDCF8EB58DE48EBD16
:102470000DB407FEFDCF8EB5289A289889EC8EBD45
:102480000DB407FEFDCF8EB587EC8EBD0DB407FEF3
:10249000FDCF8EB5289A289885EC8EBD0DB407FE29
:1024A000FDCF8EB580E88EBD0DB407FEFDCF8EB595
:1024B000289A109288028BE080934402289888EC36
:1024C0008EBD0DB407FEFDCF8EB58BE68EBD0DB46F
:1024D00007FEFDCF8EB5289A2F9A81E08093CE0318
:1024E00080E00E948C0437C00E94330C34C02FBFA0
:1024F00032C090913903852F8923B9F0E42FFF274B
:10250000EE0FFF1FE953FD4F2081318111821082B0
:10251000852F8095982390933903442331F4215FCC
:102520003240B1F410920C0213C04F5F483098F45F
:10253000550FDFCF80910B02E82FFF27EE0FFF1F13
:10254000E953FD4F6081718141E00E940D0E03C08F
:10255000550F41E0CECF64960FB6F894DEBF0FBEA4
:10256000CDBFDF91CF911F910F91FF90EF90DF9042
:10257000CF90BF90AF909F908F907F906F905F9023
:102580004F903F902F900895809135038F3FB1F089
:10259000282F3327F901ED5CFD4F808180933503AF
:1025A0008F3F11F48093D4038FEF80832F3F31F05E
:1025B000822F0E944B0E81E090E0089580E090E031
:1025C00008950F931F930FB7F89414BE88E10FB6C8
:1025D000F89480936000109260000FBE4FE050E0CE
:1025E0006FEF70E083E392E00E9458168FEF8093C4
:1025F00035038093D40356985E9854985C988091E4
:102600006F008F7D80936F00209A289A279A2F98C9
:102610000E9A169A89E592E090932C0280932B02F1
:10262000109253028AE58093490281E080938100F1
:1026300080E28093B60083E08093B10080918400B3
:10264000909185004AE720918400309185002817F9
:10265000390708F44150442311F0C901F4CF909197
:10266000B2008091B2008917E1F32091840030918B
:1026700085009091B2008091B2008917E1F38091BA
:10268000840090918500821B930B409625E09695DF
:1026900087952A95E1F7909337038093360310923C
:1026A000B1008091B100809381008091810080937E
:1026B000B6001092B20010928500109284008FEF45
:1026C00087BB87B386BB8091B6008571E1F70A9A14
:1026D000099A089A129A119A109A18B88FEF87B926
:1026E0000C981498109285001092840080916F00CD
:1026F000816080936F0080918100887F82608093E9
:1027000081000E94C4128823E1F78FEF8093560264
:1027100080E00E94EE00182F8091B60080628093C6
:10272000B6008091B60081FDFCCF82E08093B000BE
:102730008091B60080FDFCCF83E08093B100809152
:10274000B60083FDFCCF86EE8093B30080917000CD
:102750008260809370000E947702809100029091C5
:1027600001020196AA27BB2780934F029093500243
:10277000A0935102B09352028FE393E09093220210
:10278000809321028F9690932402809323028DE9F7
:1027900093E090932602809325028FEF9FEF909312
:1027A00028038093270390932A038093290390930F
:1027B0002C0380932B0390932E0380932D039093EF
:1027C000300380932F03809100028295807F809355
:1027D0001D028FEF809348020E94C4128823E1F704
:1027E000802F99278FBF78940E94C80C8FB7F894D8
:1027F000482F552757C0809170009927837090709B
:10280000892B19F4E5E0F0E014C08091B6008A71DC
:10281000E1F78091B3009091B200891B8C3038F0C1
:102820008091B200853F18F4E3E0F0E002C0E2E0FE
:10283000F0E080916E00867009F580916F008E72D5
:10284000E9F4809171008E72C9F40CB407FC16C0D3
:102850008091C100887191F48091C900887171F4F0
:102860008091BC0082FD0AC080917A0087FF03C07E
:1028700081E090E005C085E090E002C080E090E05B
:1028800023B78E1708F4E82FFF27E453FF4FE49196
:10289000207F2160E22BE3BF78948895F89483B77A
:1028A0008E7F83BF809135038F3F09F4A4CF282FFB
:1028B0003327F901ED5CFD4F8081809335038F3F15
:1028C00011F48093D4038FEF80832F3F09F493CFCB
:1028D0004FBF822F0E944B0E89CFACE2B0E0E3E7FE
:1028E000F4E10C942116222E332E442E552E662E02
:1028F000772E882E992EFE013196A8E01192AA9586
:10290000E9F729823A824B825C826D827E828F82D5
:102910009886FE013996B8E01192BA95E9F7A98632
:10292000BA86CB86DC86ED86FE860F87188B89817A
:102930009A81AB81BC8189A79AA7ABA7BCA77C0170
:102940008D018FEF9FEFA0E0B0E0E822F9220A238B
:102950001B2389A59AA5ABA5BCA51D01442455241C
:1029600089859A85AB85BC858DA39EA3AFA3B8A7A7
:102970005C016D018FEF9FEFA0E0B0E0A822B922CB
:10298000CA22DB228DA19EA1AFA1B8A53D0188245A
:102990009924C801B701A60195010E94021669A3F6
:1029A0007AA38BA39CA3C801B701A40193010E9441
:1029B00002167B018C01C201B101A60195010E94A2
:1029C00002165B016C01C201B101A40193010E94D6
:1029D00002163B014C01EA0CFB1C0C1D1D1D89A1BC
:1029E0009AA1ABA1BCA19D01442755272E0D3F1DE7
:1029F000401F511F2A153B054C055D0540F480E042
:102A000090E0A1E0B0E0680E791E8A1E9B1ECA010C
:102A1000AA27BB27860D971DA81DB91D8D8F9E8FD8
:102A2000AF8FB8A3A9013327222789A19AA1ABA10F
:102A3000BCA1A070B070280F391F4A1F5B1F298FDF
:102A40003A8F4B8F5C8FA98CBA8CCB8CDC8CED8C45
:102A5000FE8C0F8D18A1FE01719698E011929A9547
:102A6000E9F7ED8AFE8A0F8B188F2D813E814F8109
:102A700058856DA17EA18FA198A50E9402163B01E9
:102A80004C012D853E854F85588969A57AA58BA572
:102A90009CA50E9402162D893E894F89588D260FCC
:102AA000371F481F591F260D371D481D591D2D8BD7
:102AB0003E8B4F8B588F6D887E888F88988C2A2DFF
:102AC0003B2D4C2D5D2D662D772D882D992DE2E126
:102AD000AC960C943D16A0E1B0E0E1E7F5E10C9472
:102AE0002116222E332E442E552E662E772E882E1A
:102AF000992E002309F466C088E0FE0131961192F8
:102B00008A95E9F729833A834B835C836D837E83BF
:102B10008F829887E0E2E01B1E16CCF52D813E8166
:102B20004F815885602F772767FD7095DA01C901BD
:102B3000062E04C0B695A795979587950A94D2F767
:102B40008D879E87AF87B88B04C0220F331F441F29
:102B5000551FEA95D2F789819A81AB81BC8104C067
:102B6000B695A795979587956A95D2F7282B392B17
:102B70004A2B5B2B29873A874B875C8729843A84C9
:102B80004B845C846D847E848F8498881BC01D86F2
:102B90001E861F86188A2E2F332727FD30953095E5
:102BA00021953F4F8D819E81AF81B88504C0B69538
:102BB000A795979587952A95D2F789879A87AB87A6
:102BC000BC87DCCF222D332D442D552D662D772D3E
:102BD000882D992DE2E160960C943D16AA1BBB1B33
:102BE00051E107C0AA1FBB1FA617B70710F0A61B0D
:102BF000B70B881F991F5A95A9F780959095BC012E
:102C0000CD010895629FD001739FF001829FE00D76
:102C1000F11D649FE00DF11D929FF00D839FF00D5B
:102C2000749FF00D659FF00D9927729FB00DE11D07
:102C3000F91F639FB00DE11DF91FBD01CF011124E4
:102C400008952F923F924F925F926F927F928F9250
:102C50009F92AF92BF92CF92DF92EF92FF920F932B
:102C60001F93CF93DF93CDB7DEB7CA1BDB0B0FB635
:102C7000F894DEBF0FBECDBF09942A8839884888F2
:102C80005F846E847D848C849B84AA84B984C88488
:102C9000DF80EE80FD800C811B81AA81B981CE0F7F
:102CA000D11D0FB6F894DEBF0FBECDBFED01089564
:102CB000DC0101C06D9341505040E0F70895FFCF13
:0C2CC0000100010022FFFFFFFFFFFF01E9
:00000001FF
