S01700006275696C642F697269732F6D61696E2E7372656343
S11300000C9469000C9488000C9488000C9488006B
S11300100C9488000C9488000C9488000C9488003C
S11300200C9488000C9488000C9488000C9488002C
S11300300C9488000C9429040C9488000C942E03CE
S11300400C945B0C0C94910C0C94E5030C94F0034D
S11300500C94FB030C9488000C9488000C94880086
S11300600C9442030C9488000C9488000C9488002F
S11300700C9488000C9488000C9488000C948800DC
S11300800C9488000C9488000C9488000C948800CC
S11300900C9488000C9488000C9488000C948800BC
S11300A00C9488000C9488000C9488000C948800AC
S11300B00C9488000C9488000C9488000C9488009C
S11300C00C9488000C9488000C94880000020E069E
S11300D00C0411241FBECFEFD1E2DEBFCDBF12E06E
S11300E0A0E0B2E0E8EDFCE200E00BBF02C0079044
S11300F00D92A031B107D9F713E0A0E1B2E001C03D
S11301001D92AC3DB107E1F70E94ED120C946B1601
S11301100C9400008FB7F894992708958FBF089521
S1130120282F9FB7F894E82FFF27E25AFD4F8081CC
S11301308F3F81F4E091D403E21771F40BC0209354
S1130140310304C0FF27E25AFD4F20832093D403D8
S113015020E007C025E005C0809131038F3F91F76F
S1130160EECF892F99278FBF822F9927089588234F
S113017019F08CB5806402C08CB58F7B8CBD08955A
S1130180882319F08CB5806802C08CB58F778CBD3C
S113019008950F931F9380E00E94B7000FB7F8945F
S11301A01127229A2398219A209A8CB580618CBDBC
S11301B080E00E94C0008CB5877F8CBD8CB58B7F9E
S11301C08CBD81E00E94B7008DB581608DBD8CB57A
S11301D08C7F8CBD0FBF1F910F9108950F931F93B8
S11301E0CF93DF93182F0FB7F894809118028823C8
S11301F011F40E94C900802F99278FBF8FB7F894FC
S1130200C82FDD272C2F80911802882361F481E008
S113021080931802109382028CE00E949000CFBF5A
S113022080E090E021C0E12FFF27EF57FD4F808150
S11302308F3F89F4E0910D02E11789F40CC010930B
S11302400C0204C0FF27EF57FD4F108310930D02DB
S113025080E090E002C085E090E02FBF05C080916F
S11302600C028F3F79F7EBCFDF91CF911F910F9164
S113027008958FB7F894282F3327922F80910E0278
S1130280882331F480911802823011F42FBF13C0F7
S11302909FBF8FB7F894282F3327809118028823A3
S11302A069F482E08093180210920E022FBF0E941C
S11302B0C900209A289A81E090E008952FBF80E039
S11302C00E94EE0080E090E00895FB0121E030E020
S11302D002C0220F331F8A95E2F784A5822B84A7DC
S11302E008958FB7F8942091F4023091F50240916B
S11302F0F6025091F702E0918400F0918500B09BE2
S113030008C02F5F3F4F4F4F5F4FE0918400F09143
S1130310850099278FBFC901772766279F01442746
S11303205527622B732B842B952B0895FC01828116
S11303309927982F882721813327822B932B25E017
S1130340969587952A95E1F7817090700895AC0190
S1130350EFB7F8942091840030918500C901841B83
S1130360950B03968617970720F0B9016D5F7F4FB1
S113037002C0640F751F6115710511F461E070E02E
S113038061507040709389006093880082E086BB5E
S113039080916F00826080936F008E2F99278FBFAA
S11303A00895CF93DF93EC010E949601882339F1DD
S11303B08A8129819927982F88273327822B932B89
S11303C087749C7C81549848D1F48F814E812FB7D7
S11303D0F894332760910602709107022FBF20E042
S11303E09927982F88275527842B952B86179707AD
S11303F009F021E081E02827822F992702C080E0BC
S113040090E0DF91CF910895FB0121E030E002C03C
S1130410220F331F8A95E2F784A582239927089532
S1130420EF92FF920F931F937C018FB7F894992753
S113043000911A0310911B030F5E1E4F10931B03B0
S113044000931A03015111408FBF87E00E9490006E
S1130450C801B7010E94FA158A5D9E4F1F910F9142
S1130460FF90EF9008957FB7F8946091B2002091C7
S1130470590230915A0240915B0250915C02B99B3F
S113048011C08091B3009091B200280F311D411D1D
S1130490511D2F5F3F4F4F4F5F4F290F311D411D9E
S11304A0511D04C0260F311D411D511D872F992751
S11304B08FBFCA01B9010895DF92EF92FF920F93A3
S11304C01F93D82E7A018B010E94330229E0D29E19
S11304D0F0011124E850FD4F60837183828393837C
S11304E0E482F5820683178380858E7F826080870D
S11304F089E00E9490001F910F91FF90EF90DF9090
S11305000895DF92EF92FF920F931F938FB7F894A1
S1130510282F3327D22E9091B3008091B20047B395
S1130520981711F041FF02C02FBF71C0809179026A
S11305308823E1F10E943302E0905202F0905302CA
S113054000915402109155022091360330913703E3
S113055040913803509139036E197F09800B910B38
S1130560621773078407950720F01092790271E0EF
S11305701EC02E0D3F1D401F511F809159029091A6
S11305805A02A0915B02B0915C02281B390B4A0B02
S11305905B0B273E31054105510540F4822F223083
S11305A010F070E005C070E082E002C070E086EEFA
S11305B0682F61508091B60083FDFCCF8091B2001A
S11305C0681709F46F5F2091590230915A024091E3
S11305D05B0250915C02DA01C9010196A11DB11DB3
S11305E0860F911DA11DB11D82179307A407B5079E
S11305F010F4622F60958091B60083FDFCCF609368
S1130600B300DFBE772319F088E00E9490001F91A9
S11306100F91FF90EF90DF900895AFB7F894BB2748
S1130620E1E0E09379026093520270935302809365
S1130630540290935502209336033093370340932A
S1130640380350933903AFBF0E94810208956D317E
S113065018F080E090E008950C9608951F920F9290
S11306600FB60F9211248F938091B0008093B00045
S11306708091B60081FDFCCF8F910F900FBE0F903B
S11306801F9018951F920F920FB60F9211240F937B
S11306901F932F933F934F935F936F937F938F9306
S11306A09F93AF93BF93CF93DF93EF93FF932EB5B5
S11306B0E0911303F0911403309739F08091E30231
S11306C09091E402E80FF91F20838091E302909156
S11306D0E40201969093E4028093E30280E00E9496
S11306E0C000C091E302D091E40220914A0230910B
S11306F04B02C217D30708F042C00091C8031091FF
S1130700C9034091130350911403CE010A9628178C
S1130710390708F4C901DA01AC0FBD1FF801EC0F69
S1130720FD1F9C012150304015C00115110531F009
S113073080818EBD0DB407FEFDCF04C01EBC0DB478
S113074007FEFDCF8EB54115510509F08C93219616
S113075011963196C217D30740F381E00E94C0007E
S11307600115110531F00C0F1D1FF80180818EBD9C
S113077001C01EBCD093E402C093E30211C01092E6
S11307801403109213031092C9031092C803109219
S11307904B0210924A021092E4021092E3028EB5C8
S11307A0FF91EF91DF91CF91BF91AF919F918F9185
S11307B07F916F915F914F913F912F911F910F9175
S11307C00F900FBE0F901F90189578941F920F9260
S11307D00FB60F9211240F900FBE0F901F90189513
S11307E078941F920F920FB60F9211240F900FBEA0
S11307F00F901F90189578941F920F920FB60F9236
S113080011242F933F938F939F93AF93BF932FB74D
S1130810F89433278091F4029091F502A091F602A6
S1130820B091F7020196A11DB11D8093F40290933B
S1130830F502A093F602B093F7022FBFBF91AF91D8
S11308409F918F913F912F910F900FBE0F901F900A
S113085018951F920F920FB60F9211242F933F9366
S11308604F935F936F937F938F939F93AF93BF93B4
S1130870EF93FF938091B0008093B0008091B60015
S113088081FDFCCF8091B30099270196AA27BB274D
S11308902091590230915A0240915B0250915C02BE
S11308A0280F391F4A1F5B1F2093590230935A02A5
S11308B040935B0250935C0278940E948102FF9102
S11308C0EF91BF91AF919F918F917F916F915F91C4
S11308D04F913F912F910F900FBE0F901F9018953D
S11308E021E020938302209315032091840030910A
S11308F08500BC01C9010E94A70108951F93982F88
S11309001FB7F89480911702823099F580910B02F9
S1130910891779F58091090220E030E08F3F11F4C6
S113092021E030E0232BF1F49FEF90930B028F3FF3
S113093019F42FEF30E00DC0282F3327F901ED58BB
S1130940FD4F8081809309028F3F11F490930A0236
S113095090832093700281E08093170283E00E94C9
S1130960900005C08FEF80930B021092170221E0D4
S113097001C020E0812F99278FBF90E0213009F436
S113098091E081E09827892F99271F910895AF92CC
S1130990BF92CF92DF92EF92FF920F931F93CF9368
S11309A0DF935B016C01C0E0D0E0E8EFF2E060852A
S11309B061FF69C02081318142815381E480F580E7
S11309C006811781D601C501821B930BA40BB50BBD
S11309D08E159F05A007B10708F455C060FF03C03A
S11309E06D7F608708C02E0D3F1D401F511F20835F
S11309F0318342835383C130E9F0C13020F0C230E7
S1130A0009F047C034C02FB7F894332782B192E07D
S1130A10892782B92FBF809115028823C1F0809164
S1130A2000038D7F8093000348EE53E060E070E0A4
S1130A3081E01AC08091100290911102A0911202DB
S1130A40B09113020097A105B10521F481E00E9441
S1130A5090001FC0809109038D7F8093090348EEA5
S1130A6053E060E070E082E00E945C0212C080917A
S1130A701402882311F482E0EACF809112038D7F5F
S1130A808093120306C021963996C330D10509F02C
S1130A908ECF89E00E949000DF91CF911F910F913A
S1130AA0FF90EF90DF90CF90BF90AF9008950F9399
S1130AB01F93982F1FB7F89480911802823099F5EC
S1130AC080910E02891779F580910C0220E030E0C4
S1130AD08F3F11F421E030E0232BF1F49FEF90934A
S1130AE00E028F3F19F42FEF30E00DC0282F33276B
S1130AF0F901EF57FD4F808180930C028F3F11F471
S1130B0090930D0290832093820281E080931802D7
S1130B108CE00E94900005C08FEF80930E0210922B
S1130B20180201E001C000E0812F99278FBF1FB791
S1130B30F89480911802882311F40E94B700812F41
S1130B4099278FBF90E0013009F491E081E0982764
S1130B50892F99271F910F910895809177028230F0
S1130B6031F481E08093770285E00E94900008953B
S1130B7080933A03882311F484E001C081E08093D8
S1130B80770285E00E94900008954F925F926F92E1
S1130B907F928F929F92AF92BF92CF92DF92EF9209
S1130BA0FF920F931F93CF93DF932C0180914902FF
S1130BB0882309F083C18091CA03853009F07EC17E
S1130BC00E943901882309F479C180912203882382
S1130BD009F074C1B20182E00E940402882311F476
S1130BE090E003C0F20196A59F708091B30298171C
S1130BF081F09093B302289885EC8EBD0DB407FE66
S1130C00FDCF8EB590689EBD0DB407FEFDCF8EB5A9
S1130C10289AE20121968981F201218140E09927F5
S1130C20982F88273327822B932B87749C7C81549D
S1130C30984809F441E0442301F1289886E88EBDE0
S1130C400DB407FEFDCF8EB51EBC0DB407FEFDCF5F
S1130C508EB5289A99278F71907020917E024091C9
S1130C607402240F312D311D43E0359527954A95A3
S1130C70E1F7281739070CF421C1289882EC8EBDBE
S1130C800DB407FEFDCF8EB589E08EBD0DB407FE11
S1130C90FDCF8EB5289A0E9471017B018C01B201AF
S1130CA084E00E940402882319F4E0E0F0E006C026
S1130CB0D2018C918550F201E80FF11D289881E84A
S1130CC08EBD0DB407FEFDCF8EB51EBC0DB407FE60
S1130CD0FDCF8EB5289A8F71893079F0289882ECEF
S1130CE08EBD0DB407FEFDCF8EB586E08EBD0DB46E
S1130CF007FEFDCF8EB5289AE1C08FB7F8949927E7
S1130D002F9A20918400309185008FBF2F982898C6
S1130D1080E68EBDD2019C910DB407FEFDCF8EB549
S1130D209EBD792F7250773010F4672F01C067E0B1
S1130D30DE01962F4D910DB407FEFDCF8EB54EBD4D
S1130D409150C1F76150C60FD11D6F5F21962E19C6
S1130D503F092E553F4F3901882477FC8094982C05
S1130D606E0C7F1C801E911E309719F4972F961BD2
S1130D7042C02081E1808281A3809927AA27BB27D2
S1130D80BA2FA92F982F8827332744275527522F66
S1130D90442733272227FF24002711278701FF2414
S1130DA0EE242E293F29402B512BBB24CC24DD24B7
S1130DB02A293B294C295D29822B932BA42BB52B63
S1130DC086199709A809B9098383292F3A2F4B2F2C
S1130DD0552722839D014427552721838B2F99274B
S1130DE0AA27BB278083C2CF28810DB407FEFDCF7D
S1130DF021968EB52EBD9150B8F70DB407FEFDCFE8
S1130E008EB5289A289882EC8EBD0DB407FEFDCFCE
S1130E108EB586E08EBD0DB407FEFDCF8EB5289A43
S1130E203097D1F12081E1808281A3809927AA277C
S1130E30BB27BA2FA92F982F882733274427552754
S1130E40522F442733272227FF2400271127870105
S1130E50FF24EE242E293F29402B512BBB24CC24E4
S1130E60DD242A293B294C295D29822B932BA42B91
S1130E70B52B860D971DA81DB91D8383292F3A2FE5
S1130E804B2F552722839D014427552721838B2FE0
S1130E909927AA27BB278083B20181E00E946501BC
S1130EA0F20160A671A682A693A686E08093CA0387
S1130EB084E08093490280E090E002C085E090E005
S1130EC0DF91CF911F910F91FF90EF90DF90CF9022
S1130ED0BF90AF909F908F907F906F905F904F9056
S1130EE00895AF92BF92CF92DF92EF92FF920F9349
S1130EF01F93CF93DF9380912203882309F402C1C7
S1130F000E943901882309F4FDC08FB7F89499270A
S1130F10C0917F02D09180028FBF10922203289843
S1130F208FE88EBD0DB407FEFDCF8EB51EBC0DB48B
S1130F3007FEFDCF8EB5289A982F80914902833001
S1130F4011F0873031F485E08093CA0388E0809300
S1130F504902A92EBB24A2FE63C0809149028630B7
S1130F6019F41092490203C0882309F059C094303F
S1130F7009F045C0289886E88EBD0DB407FEFDCF64
S1130F808EB51EBC0DB407FEFDCFFEB4289A2FE12A
S1130F90F22280917402982F96959695EF2DE91B75
S1130FA08E0F809374020091560210915702F8013B
S1130FB084A58B7F84A7B80183E00E946501F801B2
S1130FC0F6A60E9471017B018C01C0905602D0905C
S1130FD05702B60181E00E946501CE19DF09279707
S1130FE0CE01AA2797FDA095BA2F8E0D9F1DA01F95
S1130FF0B11FF60180A791A7A2A7B3A70EC0E091E5
S11310005602F091570284A5877F84A7E091560287
S1131010F091570284A58D7F84A785E080934902CF
S1131020A3FE70C080914902843009F04EC085E06F
S11310308093CA031092490280915802833019F4B4
S1131040109258025FC0C091D503D091D603CE014F
S11310500E949601882389F18A8129819927982FF2
S113106088273327822B932B87749C7C8154984840
S113107021F58F812E819927982F88273327822B5A
S1131080932B8F5F9F4FC9F090E0809115038823C5
S113109009F491E0992389F012E01093830281E02E
S11310A080931503809184009091850069E973E031
S11310B00E94A7011093580225C010925802109262
S11310C0780280E00E94B8051DC08530D9F42091D3
S11310D07E02289886E88EBD0DB407FEFDCF8EB53E
S11310E01EBC0DB407FEFDCF8EB5289A8F71922FCA
S11310F096959695891B280F20937E0289E080930C
S1131100490208C090914902992309F4E6C2993032
S113111009F013C2289880E28EBD0DB407FEFDCFFE
S11311208EB51EBC0DB407FEFDCF8EB5482F5527D6
S1131130433008F497C3842F99278A970CF092C3FD
S11311401EBCE0915602F09157024083142F1250B6
S1131150173010F4912F01C097E0BF016F5F7F4FEC
S1131160292FFB0140E050E00DB407FEFDCF8EB502
S11311701EBC808381914827042E4295407F4025E0
S1131180052E542F42954F70042646955427452723
S1131190440F440F440F4025215031F79150DB0197
S11311A0A90FB11D9F5F1196E0915602F09157026D
S11311B081818770823009F421E0222349F020E004
S11311C030E080915802823081F421E030E00DC09B
S11311D08FB7F894282F332760E080911C03833065
S11311E008F461E02FBF262F3327232B09F45CC0BA
S11311F0191B912F18C00DB407FEFDCF8EB51EBC70
S11312008C938D914827042E4295407F4025052ECE
S1131210542F42954F700426469554274527440F72
S1131220440F440F4025915030F70DB407FEFDCF15
S11312308EB51EBC9A012827022E2295207F2025D8
S1131240032E322F22952F7002262695322723272C
S1131250220F220F220F20250DB407FEFDCF8EB5DD
S11312601EBC2827022E2295207F2025032E322FF4
S113127022952F700226269532272327220F220F2C
S1131280220F20250DB407FEFDCF8EB5E091560246
S1131290F091570285A7289A15E01093CA0310927B
S11312A04902232B31F015C20DB407FEFDCF8EB5D4
S11312B0D9C2E0905602F090570267010894C11C0D
S11312C0D11CF701818190E0282F332727703070DB
S11312D02230310509F491E080915802992321F1DB
S11312E0823009F025C1F7019381E091D503F09193
S11312F0D6038381981709F01BC12230310509F008
S113130017C180916F008D7F80936F001092150339
S1131310BF0180E00E946501109258021092780289
S113132080E00E94B80504C18823C9F4C7010E9463
S1131330D1018823A1F01093B40282E08093B50216
S11313401092B602F70183818093B70284EB92E096
S11313500E94C505882319F483E080935802009104
S1131360840010918500C7010E94D101882311F0E7
S1131370045E1C4F1093F1020093F00280918400EC
S1131380909185009801281B390B12161306A4F4BA
S113139080917802882369F490E080911503882372
S11313A009F491E0992341F0C9010E94700480E896
S11313B001C0806880937802F6018085278199278F
S11313C0582F44273327422B532B80915D02282F1B
S11313D03327F901EE0FFF1FED5DFC4F80819181F2
S11313E0709116038417950769F4F901E153FC4FD2
S11313F08081871709F467C0872F8F5F8093160356
S113140080831DC000E010E080E090E0C3E2D3E000
S1131410EFECF3E0DF01682F9C0188819981841748
S1131420950779F420935D02909116038C918917A6
S113143009F449C0892F8F5F809316038C9300E8C9
S113144029C08081972F981B091710F4092F122F98
S11314506F5FC901019611962296319685309105E8
S1131460D1F66530B9F410935D02A12FBB27FD01BD
S1131470EE0FFF1FED5DFC4F5183408380911603F7
S11314808F5F80931603FD01E153FC4F8083A952C3
S1131490BC4F1C9290911603892F8F778F3779F464
S11314A00F3768F0EFECF3E0292F207880818F6705
S11314B089132083319683E0E43DF807B9F78091DE
S11314C05D02282F3327F6019281A22FBB27FD014D
S11314D0E952FC4F808180FF07C0FD01E35EFC4FB1
S11314E08081981729F102C081608083A35EBC4F7C
S11314F09C93DFB6F89480911C038330B0F4E091A0
S11315003403E80FE33008F0E350FF27EE0FFF1F2A
S1131510E45BFD4F00811181F182E0828F5F809353
S11315201C0386E00E94900078018D2D99278FBFBF
S1131530F0925702E0925602C3C0892F8150833043
S113154008F09CC081508230E0F43091CA033130FD
S1131550C1F420E080911503882309F421E02223BB
S113156081F02F9883E08093830230931503809158
S11315708400909185006BE273E00E94A70182E0F1
S113158068C0933009F042C08091CA03833009F0E7
S113159097C00E9439018823C9F128988FE88EBD2D
S11315A00DB407FEFDCF8EB51EBC0DB407FEFDCFF6
S11315B08EB5289A8091810080648093810080E2B6
S11315C086BB80916F00806280936F0090916F0260
S11315D0289888EC8EBD0DB407FEFDCF8EB59066BD
S11315E09EBD0DB407FEFDCF8EB5289A289882ECD7
S11315F08EBD0DB407FEFDCF8EB586E08EBD0DB455
S113160007FEFDCF8EB5289A84E023C0809149025D
S11316108150823000F58091CA038530E1F40E9444
S113162039018823C1F0289882EC8EBD0DB407FEE1
S1131630FDCF8EB583E08EBD0DB407FEFDCF8EB514
S1131640289A80916F008F7D80936F0010922203FF
S113165083E08093CA0390914902913041F48091D0
S1131660CA038330B1F52F9A9093CA0325C09230F0
S113167039F58091CA03833061F51EC0973001F5B6
S11316800E9439018823E1F090916F02289888EC38
S11316908EBD0DB407FEFDCF8EB590669EBD0DB414
S11316A007FEFDCF8EB5289A8091CA03853021F4B8
S11316B084E08093CA0304C088E08093490204C094
S11316C080914902883029F41092490284E00E94F2
S11316D0900080914902882309F58091CA038530DE
S11316E0D1F4809122038823B1F480915802882395
S11316F091F480917802882371F490E0809115032D
S1131700882309F491E0992331F00E94AD0580917A
S11317104902882319F48AE00E94900080911503FD
S1131720823009F092C010921503F0908302F2E027
S1131730FF1609F466C023E0F21609F46AC081E0DA
S1131740F81609F082C02091F0023091F1028091E4
S113175084009091850040917802403829F41092D9
S113176078020E94AD0571C08901081B190B47FF5F
S113177003C010161106ECF0C0917502D0917602E8
S1131780809158028823A9F4CE010E94C5059927A7
S1131790882351F48CA58E7F8CA7F0925802D093A5
S11317A0D603C093D50329C09927F82E882329F19D
S11317B002C065E0F62E20917802822F99278F7758
S11317C0019759F4207822602093780280E198E010
S11317D00E9410020E94700438C027FF0AC010162D
S11317E011063CF480E880937802C8010E947004DA
S11317F002C0109278028F2D09C083E08093780292
S113180024C0109258021092780280E00E94B80519
S11318101CC08091CA03823019F4F092CA0313C029
S113182080914902863079F410924902289881E81F
S11318308EBD0DB407FEFDCF8EB51EBC0DB407FEE4
S1131840FDCF8EB5289A0E94470C8FB7F894282FA5
S1131850332780916E02813061F081E080936E02C3
S11318602FBF49CB289A85E08093CA03109249027E
S113187030CF10926E022FBFDF91CF911F910F9145
S1131880FF90EF90DF90CF90BF90AF9008958FB707
S1131890F894282F332780916E02882329F08068DA
S11318A080936E022FBF089581E080936E022FBF54
S11318B00E947107089578941F920F920FB60F92A9
S11318C011242F933F934F935F936F937F938F9341
S11318D09F93AF93BF93EF93FF93E6E8F0E080818B
S11318E09181208131818FB7F894992730938002B8
S11318F020937F0221E0209322038FBF0E94470C94
S1131900FF91EF91BF91AF919F918F917F916F91D3
S11319105F914F913F912F910F900FBE0F901F90A9
S1131920189578941F920F920FB60F9211242F934B
S11319303F934F935F936F937F938F939F93AF9353
S1131940BF93EF93FF9380916F008D7F80936F001F
S113195078949FB7F89480911503813019F482E04C
S113196080931503892F99278FBF0E94470CFF91FD
S1131970EF91BF91AF919F918F917F916F915F9103
S11319804F913F912F910F900FBE0F901F9018957C
S11319908FB7F894282F332780916E02815080935B
S11319A06E02803811F02FBF089581E080936E029B
S11319B02FBF0E94710708951F938FB7F89499273A
S11319C020916E022F5F20936E028FBF8091770269
S11319D0882311F015E023C0809149028823E1F4A3
S11319E08091CA03813049F490E0809115038823E3
S11319F009F491E0992381F005C0853019F489E058
S1131A0090E00CC083E0809349020E94470C85E07B
S1131A108093770210E003C085E090E0182F0E94C5
S1131A20C80C812F99271F9108951F93FC018FE300
S1131A308287809148028F5F8093480283832FB707
S1131A40F894332780916E028F5F80936E022FBFCC
S1131A5080917702882311F015E00DC0F0931903EB
S1131A60E093180381E0809377021092170385E0D6
S1131A700E94900010E00E94C80C812F99271F91AA
S1131A8008951F93CF93DF93182FFA01A22F2D31BE
S1131A9018F086E090E08EC0EA01219689812181C8
S1131AA0B0E09927582F44273327422B532BCA01E0
S1131AB087749C7C8154984809F4B1E0BB2349F4B1
S1131AC0CA0180739070816498688183892F9927F3
S1131AD08983A35FA0832FB7F894332780910602EC
S1131AE0909107022FBF8087892F992781872FB76D
S1131AF0F8943327809108022FBF99278483158295
S1131B0013876683872F992787838FB7F894282FA5
S1131B10332780911702882371F482E0809317029F
S1131B2010920B022FBFCF010E94150D9927182F79
S1131B30882399F00FC02FBFF0937202E0937102D3
S1131B408FB7F894C82FDD272C2F80911702882394
S1131B5099F406C080E00E947E04812F99272AC050
S1131B6081E0809317021092700283E00E9490003B
S1131B70CFBF80E090E01EC0809173028F3F89F454
S1131B80E0910A02EE2369F010C01092090204C029
S1131B90FF27ED58FD4F108210920A0280E090E07A
S1131BA002C085E090E02FBF05C0809109028F3FFD
S1131BB079F7EBCFDF91CF911F910895CF93DF9306
S1131BC0FB01DB0116968683892F9927ED01898312
S1131BD086E083878091F2029091F302892B19F0B9
S1131BE085E090E02BC0F093F302E093F202435FB0
S1131BF040834D5080910F02882319F480E090E0D7
S1131C001DC08385ED0169817727762F662726819C
S1131C103327622B732B10920F02242FAF010E94E3
S1131C20410D9927282F882339F081E080930F02F2
S1131C301092F3021092F202822F9927DF91CF9132
S1131C4008951F93CF93DF93182FEB01E82FFF27FD
S1131C50EE0FFF1FEE50FD4F1182108210920F0203
S1131C60E091F202F091F302309721F08091350374
S1131C7080FF0FC081E080930F0203C08EE00E94BA
S1131C8090001123C1F4C951D240A9F41092160254
S1131C9012C020812D50332767817727762F66273E
S1131CA086819927682B792BAF0183850E94410D8A
S1131CB0882339F3E3CFDF91CF911F9108952F92B9
S1131CC03F924F925F926F927F928F929F92AF92C8
S1131CD0BF92CF92DF92EF92FF920F931F93CF9315
S1131CE0DF93CDB7DEB76F970FB6F894DEBF0FBEA4
S1131CF0CDBF182F873009F481C2883098F483301F
S1131D0009F4D1C0843038F4813009F44FC08230F2
S1131D1008F08AC024C0853009F40EC1863008F06A
S1131D2069C1F2C08B3009F44AC38C3038F489306D
S1131D3009F4F3C28A3008F0DFC3BCC28D3039F035
S1131D408D3008F451C38E3009F011C4FFC3809163
S1131D503503882309F40BC440E051E0D7C38091D4
S1131D601602882309F003C46BE089E192E00E9423
S1131D702703FC01892B09F4FAC311E01083809135
S1131D8000028183128216821582148213821286C3
S1131D901186108617824BE069E172E08FEF9FEFA6
S1131DA00E94DE0D882309F0E2C33BC08091160235
S1131DB0882309F0DCC36BE089E192E00E942703E9
S1131DC0FC01892B09F4D3C383E080838091000252
S1131DD08183809115028283809102029091030293
S1131DE0A0910402B09105028683292F3A2F4B2F2C
S1131DF0552725839D014427552724838B2F992715
S1131E00AA27BB27838312861186108617824BE08C
S1131E1069E172E08FEF9FEF0E94DE0D882309F0E5
S1131E20A6C310931602A3C380911602882309F057
S1131E309EC36BE089E192E00E942703FC01892B99
S1131E4009F495C385E080838091000281838091A9
S1131E501502828316821582148213828091CB0329
S1131E609091CC03A091CD03B091CE038287292F0A
S1131E703A2F4B2F552721879D014427552720872B
S1131E808B2F9927AA27BB2787834BE069E172E050
S1131E908FEF9FEF0E94DE0D882309F068C381E075
S1131EA08093160264C32FB7F8943327809170028D
S1131EB080930B0282E0809317022FBF80910B0264
S1131EC0882309F054C380917102909172020E9498
S1131ED0150D082F1127002309F449C380E00E943F
S1131EE07E04209171023091720280910F02882346
S1131EF009F03DC36091F2027091F3026217730717
S1131F0009F035C3402F2DC38091770210927702D8
S1131F10853049F4129A48EE53E060E070E080E0C6
S1131F200E945C0224C3863009F421C3873009F47B
S1131F301EC3809377021BC32FB7F8943327809175
S1131F406E028F5F80936E022FBF40917702413003
S1131F5081F5809117038F5F80931703863048F5CE
S1131F602091180330911903809178028823C1F4D9
S1131F7090E080911503882309F491E0992381F07E
S1131F803093760220937502409378028BED91E1B1
S1131F900E9410020E94700410923A0383E004C06D
S1131FA085E080933A0382E0809377020E94C80C14
S1131FB0DEC2109277020E94C80CF0903A0300919E
S1131FC0180310911903F80182858F3309F0CFC2E9
S1131FD080E00E947E0480910F02882309F0C7C22A
S1131FE06091F2027091F3026017710709F0BFC2A9
S1131FF04F2DB7C28FB7F894282F332780911C0335
S1132000882309F480C2E0913403FF27EE0FFF1FF9
S1132010E45BFD4F608171812FBFFB018285978155
S113202026818F3309F0B4C01385F081892F992755
S1132030582F4427822F9927482B592B8FB7F89470
S1132040992720910602309107028FBF4217530748
S113205021F04F5F5F4F09F0B5C0163009F0B2C0F0
S1132060F83109F0AFC0A5EEB2E0FB013C968BE07D
S113207001900D928150E1F7DE011196E5EEF2E058
S11320808BE001900D928150E1F7DE011C96FE0178
S113209031968BE001900D928150E1F7DA88E9885E
S11320A0F8894F85ED852E858C85823071F4332730
S11320B080910002909101022817390709F082C02B
S11320C0E09315021298119A7DC0843009F051C032
S11320D0332780910002909101022817390709F0F3
S11320E071C0FF2400271127102F0F2DFE2CEE2482
S11320F0242F332744275527522F442733272227B9
S11321008F2F9927AA27BB27DC0199278827282BFB
S1132110392B4A2B5B2B8D2D9927AA27BB27282BDC
S1132120392B4A2B5B2BE22AF32A042B152BE09242
S11321301002F09211020093120210931302809184
S1132140020290910302A0910402B091050225E5D8
S113215033E148E050E882279327A427B5278093EA
S1132160CB039093CC03A093CD03B093CE031198EB
S113217029C0863039F533278091000290910102FD
S113218028173907F9F481E08093140210981AC0D3
S1132190892F9927582F4427822F9927482B592B69
S11321A08FB7F894992720910602309107028FBFC8
S11321B04217530719F04F5F5F4F21F48FB7F8941C
S11321C099278FBF9FB7F89480913403E82FFF2796
S11321D0EE0FFF1FE45BFD4F718360838F5F80937D
S11321E03403833010F01092340380911C03815027
S11321F080931C03892F99278FBFFCCE6FB76F8BF9
S1132200F89420907A0230907B0240907C025090A7
S11322107D026624772488242EE4A22E93E8B92E26
S1132220CC24DD24EE24FF2400E010E0222D332D05
S1132230442D552D662D772D882D90E00E9479141C
S1132240288F398F4A8F5B8F6C8F7D8F8E8F9F8FF6
S1132250822E932EA42EB52E2401350100E20E9475
S11322607715A22EB32EC42ED52EA3019201569516
S11322704795379527952A0D3B1D4C1D5D1D57FF2E
S113228005C05F772F5F3F4F4F4F5F4F20937A0218
S113229030937B0240937C0250937D02AF898A2F56
S11322A099278FBF8FB7F894992730931B032093F6
S11322B01A0398C080916D02882361F520912D0343
S11322C030912E0340912F0350913003EFB7F894CF
S11322D0FF276091520270915302809154029091B1
S11322E05502E0903603F0903703009138031091C3
S11322F039036E0D7F1D801F911FEFBF20932D03A7
S113230030932E0340932F035093300310926D02A9
S11323100E940D030E9433023FC00E9433025B01FE
S11323206C018FB7F8949927109279028FBF2FEF21
S11323303FEF4FEF5FE760E0E8EFF2E0808581FF79
S11323401CC080819181A281B38186017501E81A44
S1132350F90A0A0B1B0BD801C701E480F58006813A
S11323601781E81AF90A0A0B1B0BE216F306040795
S113237015071CF4A801970161E0399603E0E331E5
S1132380F007E1F6662309F4F2C0121613061406E8
S113239015062CF0C601B5010E94C704E8C02093BD
S11323A02D0330932E0340932F035093300381E089
S11323B080936D02C601B5010E940D03D8C08FB78A
S11323C0F894992710921403109213031092C903DE
S11323D01092C80310924B0210924A021092E40227
S11323E01092E3028FBFC3C02FB7F89433278091B4
S11323F0820280930E0282E0809318022FBF8091A4
S11324000E02882309F0B3C0209A289A8091CA0347
S1132410882309F075C08EEF91E00197019601972A
S1132420E1F716982F9886E090E0019701960197BE
S1132430E1F7169A289883EC8EBD0DB407FEFDCF04
S11324408EB51EBC0DB407FEFDCF8EB5289A289814
S113245082EC8EBD0DB407FEFDCF8EB588E08EBD37
S11324600DB407FEFDCF8EB5289A8EEF91E001974B
S113247001960197E1F728988EEC8EBD0DB407FE06
S1132480FDCF8EB58DE48EBD0DB407FEFDCF8EB5A8
S1132490289A289889EC8EBD0DB407FEFDCF8EB521
S11324A087EC8EBD0DB407FEFDCF8EB5289A289813
S11324B085EC8EBD0DB407FEFDCF8EB580E88EBDD4
S11324C00DB407FEFDCF8EB5289A1092B3028BE0AF
S11324D080936F02289888EC8EBD0DB407FEFDCF63
S11324E08EB58BE68EBD0DB407FEFDCF8EB5289A52
S11324F02F9A81E08093CA0380E00E94570537C079
S11325000E94470C34C02FBF32C0550F9091350341
S1132510852F8923B9F0E42FFF27EE0FFF1FEE501C
S1132520FD4F2081318111821082852F809598235F
S113253090933503442331F429513240A9F4109285
S1132540160212C04F5F483000F311C080910F0291
S1132550E82FFF27EE0FFF1FEE50FD4F60817181C2
S113256041E00E94210E03C0550F41E0CFCF6F968A
S11325700FB6F894DEBF0FBECDBFDF91CF911F9190
S11325800F91FF90EF90DF90CF90BF90AF909F900E
S11325908F907F906F905F904F903F902F90089511
S11325A0809131038F3FB1F0282F3327F901E25A8C
S11325B0FD4F8081809331038F3F11F48093D403C6
S11325C08FEF80832F3F31F0822F0E945F0E81E0D6
S11325D090E0089580E090E008950F931F930FB763
S11325E0F89414BE88E10FB6F894809360001092BA
S11325F060000FBE4FE050E06FEF70E08EE592E0B8
S11326000E9464168FEF809331038093D40356980D
S11326105E9854985C9880916F008F7D80936F00D2
S1132620209A289A279A2F980E9A169A84E892E06C
S1132630909357028093560210927E028AE580930B
S1132640740281E08093810080E28093B60083E08D
S11326508093B10080918400909185004AE7209195
S11326608400309185002817390708F44150442329
S113267011F0C901F4CF9091B2008091B200891792
S1132680E1F320918400309185009091B200809113
S1132690B2008917E1F38091840090918500821B38
S11326A0930B4096E5E096958795EA95E1F790932C
S11326B03303809332031092B1008091B100809370
S11326C08100809181008093B6001092B200109234
S11326D08500109284008FEF87BB87B386BB8091FF
S11326E0B6008571E1F70A9A099A089A129A119A22
S11326F0109A18B88FEF87B90C9814981092850027
S11327001092840080916F00816080936F008091AB
S11327108100887F8260809381000E94D012882388
S1132720E1F78FEF8093810280E00E94EE00182F82
S11327308091B60080628093B6008091B60081FDDE
S1132740FCCF82E08093B0008091B60080FDFCCF86
S113275083E08093B1008091B60083FDFCCF86EEC8
S11327608093B300809170008260809370000E9417
S1132770810280910002909101020196AA27BB2751
S113278080937A0290937B02A0937C02B0937D02A3
S11327908BE393E090934D0280934C028F96909339
S11327A04F0280934E0289E993E090935102809303
S11327B050028FEF9FEF9093240380932303909311
S11327C026038093250390932803809327039093F3
S11327D02A038093290390932C0380932B038091E5
S11327E000028295807F809348028FEF809373026A
S11327F00E94D0128823E1F7802F99278FBF789405
S11328000E94DC0C8FB7F894482F552757C080914D
S11328107000992783709070892B19F4E5E0F0E03B
S113282014C08091B6008A71E1F78091B300909151
S1132830B200891B8C3038F08091B200853F18F4C7
S1132840E3E0F0E002C0E2E0F0E080916E00867028
S113285009F580916F008E72E9F4809171008E7297
S1132860C9F40CB407FC16C08091C100887191F4BE
S11328708091C900887171F48091BC0082FD0AC006
S113288080917A0087FF03C081E090E005C085E075
S113289090E002C080E090E023B78E1708F4E82FA0
S11328A0FF27E453FF4FE491207F2160E22BE3BF35
S11328B078948895F89483B78E7F83BF8091310391
S11328C08F3F09F4A4CF282F3327F901E25AFD4F93
S11328D08081809331038F3F11F48093D4038FEF71
S11328E080832F3F09F493CF4FBF822F0E945F0E46
S11328F089CFACE2B0E0EFE7F4E10C942D16222E80
S1132900332E442E552E662E772E882E992EFE01B8
S11329103196A8E01192AA95E9F729823A824B826E
S11329205C826D827E828F829886FE013996B8E041
S11329301192BA95E9F7A986BA86CB86DC86ED862C
S1132940FE860F87188B89819A81AB81BC8189A708
S11329509AA7ABA7BCA77C018D018FEF9FEFA0E0E6
S1132960B0E0E822F9220A231B2389A59AA5ABA586
S1132970BCA51D014424552489859A85AB85BC8555
S11329808DA39EA3AFA3B8A75C016D018FEF9FEF4A
S1132990A0E0B0E0A822B922CA22DB228DA19EA128
S11329A0AFA1B8A53D0188249924C801B701A601A7
S11329B095010E940E1669A37AA38BA39CA3C80158
S11329C0B701A40193010E940E167B018C01C20180
S11329D0B101A60195010E940E165B016C01C201B2
S11329E0B101A40193010E940E163B014C01EA0CB3
S11329F0FB1C0C1D1D1D89A19AA1ABA1BCA19D01AD
S1132A00442755272E0D3F1D401F511F2A153B05F6
S1132A104C055D0540F480E090E0A1E0B0E0680E74
S1132A20791E8A1E9B1ECA01AA27BB27860D971DE5
S1132A30A81DB91D8D8F9E8FAF8FB8A3A901332711
S1132A40222789A19AA1ABA1BCA1A070B070280FC4
S1132A50391F4A1F5B1F298F3A8F4B8F5C8FA98CBC
S1132A60BA8CCB8CDC8CED8CFE8C0F8D18A1FE0106
S1132A70719698E011929A95E9F7ED8AFE8A0F8B88
S1132A80188F2D813E814F8158856DA17EA18FA124
S1132A9098A50E940E163B014C012D853E854F855D
S1132AA0588969A57AA58BA59CA50E940E162D8927
S1132AB03E894F89588D260F371F481F591F260DF1
S1132AC0371D481D591D2D8B3E8B4F8B588F6D889C
S1132AD07E888F88988C2A2D3B2D4C2D5D2D662D5C
S1132AE0772D882D992DE2E1AC960C944916A0E13E
S1132AF0B0E0EDE7F5E10C942D16222E332E442E92
S1132B00552E662E772E882E992E002309F466C042
S1132B1088E0FE01319611928A95E9F729833A8378
S1132B204B835C836D837E838F829887E0E2E01B16
S1132B301E16CCF52D813E814F815885602F772755
S1132B4067FD7095DA01C901062E04C0B695A795F4
S1132B50979587950A94D2F78D879E87AF87B88B10
S1132B6004C0220F331F441F551FEA95D2F78981F1
S1132B709A81AB81BC8104C0B695A795979587953A
S1132B806A95D2F7282B392B4A2B5B2B29873A8756
S1132B904B875C8729843A844B845C846D847E846F
S1132BA08F8498881BC01D861E861F86188A2E2F28
S1132BB0332727FD3095309521953F4F8D819E8198
S1132BC0AF81B88504C0B695A795979587952A9542
S1132BD0D2F789879A87AB87BC87DCCF222D332D28
S1132BE0442D552D662D772D882D992DE2E1609683
S1132BF00C944916AA1BBB1B51E107C0AA1FBB1F9B
S1132C00A617B70710F0A61BB70B881F991F5A9574
S1132C10A9F780959095BC01CD010895629FD001DC
S1132C20739FF001829FE00DF11D649FE00DF11D83
S1132C30929FF00D839FF00D749FF00D659FF00D32
S1132C409927729FB00DE11DF91F639FB00DE11D1F
S1132C50F91FBD01CF01112408952F923F924F9285
S1132C605F926F927F928F929F92AF92BF92CF9218
S1132C70DF92EF92FF920F931F93CF93DF93CDB721
S1132C80DEB7CA1BDB0B0FB6F894DEBF0FBECDBF99
S1132C9009942A88398848885F846E847D848C846A
S1132CA09B84AA84B984C884DF80EE80FD800C8173
S1132CB01B81AA81B981CE0FD11D0FB6F894DEBF56
S1132CC00FBECDBFED010895DC0101C06D934150ED
S10B2CD05040E0F70895FFCF26
S1132CD8010078563412010022FFFFFFFFFFFF01B5
S9030000FC
