S01700006275696C642F697269732F6D61696E2E7372656343
S11300000C9469000C9488000C9488000C9488006B
S11300100C9488000C9488000C9488000C9488003C
S11300200C9488000C9488000C9488000C9488002C
S11300300C9488000C94FD050C9488000C94020523
S11300400C94280C0C945E0C0C94B9050C94C40507
S11300500C94CF050C9488000C9488000C948800B0
S11300600C9416050C9488000C9488000C94880059
S11300700C9488000C9488000C9488000C948800DC
S11300800C9488000C9488000C9488000C948800CC
S11300900C9488000C9488000C9488000C948800BC
S11300A00C9488000C9488000C9488000C948800AC
S11300B00C9488000C9488000C9488000C9488009C
S11300C00C9488000C9488000C94880000020E069E
S11300D00C0411241FBECFEFD1E2DEBFCDBF12E06E
S11300E0A0E0B2E0E0E9FAE200E00BBF02C0079052
S11300F00D92A431B107D9F713E0A4E1B2E001C035
S11301001D92AC3BB107E1F70E94C9110C9447154D
S11301100C9400008FB7F894992708958FBF089521
S1130120282F9FB7F894E82FFF27E35DFD4F8081C8
S11301308F3F81F4E091B403E21771F40BC0209374
S1130140150304C0FF27E35DFD4F20832093B40310
S113015020E007C025E005C0809115038F3F91F78B
S1130160EECF892F99278FBF822F99270895EF9279
S11301700F931F93AE2D99E0899FF0011124E25152
S1130180FD4F4083518362837383048315832683E5
S11301903783A17080858E7F8A2B8260808787E079
S11301A00E9490001F910F91EF9008957FB7F894EB
S11301B06091B200209128023091290240912A02D4
S11301C050912B02B99B11C08091B3009091B20061
S11301D0280F311D411D511D2F5F3F4F4F4F5F4F62
S11301E0290F311D411D511D04C0260F311D411D14
S11301F0511D872F99278FBFCA01B9010895AF9266
S1130200BF92CF92DF92EF920F931F938A53924043
S1130210A9F4129AA0900202B0900302C0900402C2
S1130220D09005020E94D600AB01BC01EE249601D9
S1130230850180E00E94B700109214021F910F9173
S1130240EF90DF90CF90BF90AF900895882319F07E
S11302508CB5806402C08CB58F7B8CBD08958823D7
S113026019F08CB5806802C08CB58F778CBD089569
S11302700F931F9380E00E9426010FB7F894112773
S1130280229A2398219A209A8CB580618CBD80E0B3
S11302900E942F018CB5877F8CBD8CB58B7F8CBD64
S11302A081E00E9426018DB581608DBD8CB58C7F67
S11302B08CBD0FBF1F910F9108950F931F93CF9380
S11302C0DF93182F0FB7F89480911602882311F446
S11302D00E943801802F99278FBF8FB7F894C82FB9
S11302E0DD272C2F80911602882361F481E080930E
S11302F0160210937E028AE00E949000CFBF80E035
S113030090E021C0E12FFF27E358FD4F80818F3F0C
S113031089F4E0911102E11789F40CC010931002E2
S113032004C0FF27E358FD4F10831093110280E0AF
S113033090E002C085E090E02FBF05C080911002DC
S11303408F3F79F7EBCFDF91CF911F910F910895F4
S11303508FB7F894282F3327922F80911202882385
S113036031F480911602823011F42FBF13C09FBF65
S11303708FB7F894282F332780911602882369F4C5
S113038082E080931602109212022FBF0E9438015D
S1130390209A289A81E090E008952FBF80E00E947F
S11303A05D0180E090E00895FB0121E030E002C0AF
S11303B0220F331F8A95E2F784A5822B84A7089520
S11303C08FB7F8942091EA023091EB024091EC024D
S11303D05091ED02E0918400F0918500B09B08C03B
S11303E02F5F3F4F4F4F5F4FE0918400F0918500A6
S11303F099278FBFC901772766279F01442755276F
S1130400622B732B842B952B0895FC0182819927F1
S1130410982F882721813327822B932B25E09695CB
S113042087952A95E1F7817090700895AC01EFB734
S1130430F8942091840030918500C901841B950BA8
S113044003968617970720F0B9016D5F7F4F02C0AE
S1130450640F751F6115710511F461E070E061505E
S11304607040709389006093880082E086BB80911D
S11304706F00826080936F008E2F99278FBF08953D
S1130480CF93DF93EC010E940502882339F18A811E
S113049029819927982F88273327822B932B8774B8
S11304A09C7C81549848D1F48F814E812FB7F89465
S11304B0332760910A0270910B022FBF20E0992725
S11304C0982F88275527842B952B8617970709F093
S11304D021E081E02827822F992702C080E090E064
S11304E0DF91CF910895FB0121E030E002C0220F9B
S11304F0331F8A95E2F784A58223992708954F92A2
S11305005F926F927F928F929F92AF92BF92CF929F
S1130510DF92EF92FF920F931F93CF93DF932C01FF
S113052080911802882309F083C18091AE0385303D
S113053009F07EC10E94A801882309F479C1809141
S11305400603882309F074C1B20182E00E94730299
S1130550882311F490E003C0F20196A59F70809166
S1130560AF02981781F09093AF02289885EC8EBD66
S11305700DB407FEFDCF8EB590689EBD0DB407FE89
S1130580FDCF8EB5289AE20121968981F20121815D
S113059040E09927982F88273327822B932B877441
S11305A09C7C8154984809F441E0442301F1289843
S11305B086E88EBD0DB407FEFDCF8EB51EBC0DB40E
S11305C007FEFDCF8EB5289A99278F7190702091E0
S11305D07A0240917002240F312D311D43E035958C
S11305E027954A95E1F7281739070CF421C1289873
S11305F082EC8EBD0DB407FEFDCF8EB589E08EBDB5
S11306000DB407FEFDCF8EB5289A0E94E0017B0150
S11306108C01B20184E00E947302882319F4E0E0A3
S1130620F0E006C0D2018C918550F201E80FF11D73
S1130630289881E88EBD0DB407FEFDCF8EB51EBC93
S11306400DB407FEFDCF8EB5289A8F71893079F0ED
S1130650289882EC8EBD0DB407FEFDCF8EB586E0E2
S11306608EBD0DB407FEFDCF8EB5289AE1C08FB7BD
S1130670F89499272F9A20918400309185008FBF98
S11306802F98289880E68EBDD2019C910DB407FE68
S1130690FDCF8EB59EBD792F7250773010F4672F41
S11306A001C067E0DE01962F4D910DB407FEFDCF2A
S11306B08EB54EBD9150C1F76150C60FD11D6F5F0D
S11306C021962E193F092E553F4F3901882477FC76
S11306D08094982C6E0C7F1C801E911E309719F408
S11306E0972F961B42C02081E1808281A3809927A5
S11306F0AA27BB27BA2FA92F982F88273327442747
S11307005527522F442733272227FF240027112758
S11307108701FF24EE242E293F29402B512BBB2493
S1130720CC24DD242A293B294C295D29822B932BB7
S1130730A42BB52B86199709A809B9098383292FF6
S11307403A2F4B2F552722839D0144275527218378
S11307508B2F9927AA27BB278083C2CF28810DB46A
S113076007FEFDCF21968EB52EBD9150B8F70DB47E
S113077007FEFDCF8EB5289A289882EC8EBD0DB465
S113078007FEFDCF8EB586E08EBD0DB407FEFDCF0E
S11307908EB5289A3097D1F12081E1808281A3809F
S11307A09927AA27BB27BA2FA92F982F8827332741
S11307B044275527522F442733272227FF24002775
S11307C011278701FF24EE242E293F29402B512B8A
S11307D0BB24CC24DD242A293B294C295D29822BE6
S11307E0932BA42BB52B860D971DA81DB91D8383B0
S11307F0292F3A2F4B2F552722839D014427552714
S113080021838B2F9927AA27BB278083B20181E0FC
S11308100E94D401F20160A671A682A693A686E086
S11308208093AE0384E08093180280E090E002C0DD
S113083085E090E0DF91CF911F910F91FF90EF90B1
S1130840DF90CF90BF90AF909F908F907F906F90EC
S11308505F904F90089521E020937F022093F90246
S11308602091840030918500BC01C9010E941602C8
S11308700895EF92FF920F931F937C018FB7F89422
S113088099270091FE021091FF020F5E1E4F1093F4
S1130890FF020093FE02015111408FBF85E00E94C8
S11308A09000C801B7010E94D6148A5D9E4F1F9123
S11308B00F91FF90EF900895DF92EF92FF920F93C4
S11308C01F938FB7F894282F3327D22E9091B3001B
S11308D08091B20047B3981711F041FF02C02FBFB7
S11308E071C0809175028823E1F10E94D600E090E6
S11308F02102F090220200912302109124022091FF
S11309001A0330911B0340911C0350911D036E196F
S11309107F09800B910B621773078407950720F0FA
S11309201092750271E01EC02E0D3F1D401F511F15
S11309308091280290912902A0912A02B0912B0261
S1130940281B390B4A0B5B0B273E3105410551052A
S113095040F4822F223010F070E005C070E082E095
S113096002C070E086EE682F61508091B60083FD6E
S1130970FCCF8091B200681709F46F5F20912802C0
S11309803091290240912A0250912B02DA01C901C7
S11309900196A11DB11D860F911DA11DB11D8217C8
S11309A09307A407B50710F4622F60958091B600F1
S11309B083FDFCCF6093B300DFBE772319F086E09C
S11309C00E9490001F910F91FF90EF90DF90089587
S11309D0AFB7F894BB27E1E0E0937502609321027E
S11309E070932202809323029093240220931A038B
S11309F030931B0340931C0350931D03AFBF0E940D
S1130A005C0408951F920F920FB60F9211248F93D6
S1130A108091B0008093B0008091B60081FDFCCF3E
S1130A208F910F900FBE0F901F9018951F920F92E9
S1130A300FB60F9211240F931F932F933F934F934D
S1130A405F936F937F938F939F93AF93BF93CF9352
S1130A50DF93EF93FF932EB5E091F702F091F80244
S1130A60309739F08091DF029091E002E80FF91F8E
S1130A7020838091DF029091E00201969093E0023E
S1130A808093DF0280E00E942F01C091DF02D091A9
S1130A90E0022091190230911A02C217D30708F01C
S1130AA042C00091AC031091AD034091F702509104
S1130AB0F802CE010A962817390708F4C901DA01A9
S1130AC0AC0FBD1FF801EC0FFD1F9C0121503040FD
S1130AD015C00115110531F080818EBD0DB407FEDE
S1130AE0FDCF04C01EBC0DB407FEFDCF8EB541156D
S1130AF0510509F08C93219611963196C217D307AC
S1130B0040F381E00E942F010115110531F00C0F13
S1130B101D1FF80180818EBD01C01EBCD093E00270
S1130B20C093DF0211C01092F8021092F7021092E3
S1130B30AD031092AC0310921A0210921902109293
S1130B40E0021092DF028EB5FF91EF91DF91CF9119
S1130B50BF91AF919F918F917F916F915F914F91D1
S1130B603F912F911F910F910F900FBE0F901F90E7
S1130B70189578941F920F920FB60F9211240F902C
S1130B800FBE0F901F90189578941F920F920FB676
S1130B900F9211240F900FBE0F901F901895789408
S1130BA01F920F920FB60F9211242F933F938F939E
S1130BB09F93AF93BF932FB7F89433278091EA02A2
S1130BC09091EB02A091EC02B091ED020196A11D6F
S1130BD0B11D8093EA029093EB02A093EC02B093D0
S1130BE0ED022FBFBF91AF919F918F913F912F91B4
S1130BF00F900FBE0F901F9018951F920F920FB673
S1130C000F9211242F933F934F935F936F937F938E
S1130C108F939F93AF93BF93EF93FF938091B00013
S1130C208093B0008091B60081FDFCCF8091B30029
S1130C3099270196AA27BB272091280230912902DF
S1130C4040912A0250912B02280F391F4A1F5B1F23
S1130C50209328023093290240932A0250932B02B6
S1130C6078940E945C04FF91EF91BF91AF919F91A2
S1130C708F917F916F915F914F913F912F910F9041
S1130C800FBE0F901F901895EF92FF920F931F9332
S1130C90E091F602E1FF35C02091EE023091EF02BF
S1130CA04091F0025091F102E090F202F090F302D0
S1130CB00091F4021091F502621B730B840B950BE7
S1130CC06E157F0580079107E0F0E0FF04C0ED7F1B
S1130CD0E093F6020CC02E0D3F1D401F511F2093C0
S1130CE0EE023093EF024093F0025093F102119818
S1130CF08091000290910102079719F480E00E940C
S1130D00900087E00E9490001F910F91FF90EF9058
S1130D1008951F93982F1FB7F8948091150282307D
S1130D2091F580910F02891771F580910D0220E0F1
S1130D3030E08F3F11F421E030E0232BE9F49FEF02
S1130D4090930F028F3F19F42FEF30E00DC0282F3E
S1130D503327F901E159FD4F808180930D028F3FC4
S1130D6011F490930E02908320936C0281E080939F
S1130D7015020E94900005C08FEF80930F0210921D
S1130D80150221E001C020E0812F99278FBF90E058
S1130D90213009F491E081E09827892F99271F9148
S1130DA008950F931F93982F1FB7F89480911602FC
S1130DB0823099F580911202891779F58091100299
S1130DC020E030E08F3F11F421E030E0232BF1F4F8
S1130DD09FEF909312028F3F19F42FEF30E00DC074
S1130DE0282F3327F901E358FD4F808180931002A7
S1130DF08F3F11F490931102908320937E0281E03F
S1130E00809316028AE00E94900005C08FEF8093C1
S1130E1012021092160201E001C000E0812F99270E
S1130E208FBF1FB7F89480911602882311F40E9493
S1130E302601812F99278FBF90E0013009F491E0BA
S1130E4081E09827892F99271F910F910895809108
S1130E507302823031F481E08093730283E00E9454
S1130E609000089580931E03882311F484E001C048
S1130E7081E08093730283E00E9490000895AF9212
S1130E80BF92CF92DF92EF92FF920F931F93CF9373
S1130E90DF9380910603882309F402C10E94A8010C
S1130EA0882309F4FDC08FB7F8949927C0917B0279
S1130EB0D0917C028FBF1092060328988FE88EBDD4
S1130EC00DB407FEFDCF8EB51EBC0DB407FEFDCFDD
S1130ED08EB5289A982F80911802833011F08730AC
S1130EE031F485E08093AE0388E080931802A92E44
S1130EF0BB24A2FE63C080911802863019F41092BC
S1130F00180203C0882309F059C0943009F045C081
S1130F10289886E88EBD0DB407FEFDCF8EB51EBCA5
S1130F200DB407FEFDCFFEB4289A2FE1F222809182
S1130F307002982F96959695EF2DE91B8E0F80934E
S1130F4070020091250210912602F80184A58B7F7E
S1130F5084A7B80183E00E94D401F801F6A60E9498
S1130F60E0017B018C01C0902502D0902602B601DD
S1130F7081E00E94D401CE19DF092797CE01AA2768
S1130F8097FDA095BA2F8E0D9F1DA01FB11FF601CE
S1130F9080A791A7A2A7B3A70EC0E0912502F09164
S1130FA0260284A5877F84A7E0912502F09126027A
S1130FB084A58D7F84A785E080931802A3FE70C06A
S1130FC080911802843009F04EC085E08093AE030E
S1130FD01092180280912702833019F4109227028C
S1130FE05FC0C091B503D091B603CE010E94050243
S1130FF0882389F18A8129819927982F8827332783
S1131000822B932B87749C7C8154984821F58F8183
S11310102E819927982F88273327822B932B8F5F34
S11310209F4FC9F090E08091F902882309F491E080
S1131030992389F012E010937F0281E08093F902F2
S1131040809184009091850069E973E00E94160202
S11310501093270225C0109227021092740280E098
S11310600E9432071DC08530D9F420917A02289855
S113107086E88EBD0DB407FEFDCF8EB51EBC0DB443
S113108007FEFDCF8EB5289A8F71922F969596956F
S1131090891B280F20937A0289E08093180208C0E4
S11310A090911802992309F4E5C2993009F012C20B
S11310B0289880E28EBD0DB407FEFDCF8EB51EBC10
S11310C00DB407FEFDCF8EB5482F5527433008F4E5
S11310D096C3842F99278A970CF091C31EBCE09184
S11310E02502F09126024083542F5250573010F4B9
S11310F0452F01C047E0DF011196242FFD0160E078
S113110070E00DB407FEFDCF8EB51EBC9927819308
S11311106827062E6295607F6025072E762F6295DC
S11311206F700626669576276727660F660F660F2B
S11311306025215031F74150A40FB11D4F5F119626
S1131140E0912502F0912602818190E0877082303F
S113115009F491E0992349F020E030E080912702DE
S1131160823081F421E030E00DC08FB7F894282F4D
S1131170332790E080910003833008F491E02FBF7F
S1131180292F3327232B09F45CC0952F941B18C0F7
S11311900DB407FEFDCF8EB51EBC8C938D916827D0
S11311A0062E6295607F6025072E762F62956F70FC
S11311B00626669576276727660F660F660F6025F5
S11311C0915030F70DB407FEFDCF8EB51EBC9B01C8
S11311D02827022E2295207F2025032E322F2295A8
S11311E02F700226269532272327220F220F220F43
S11311F020250DB407FEFDCF8EB51EBC2827022E78
S11312002295207F2025032E322F22952F7002262F
S1131210269532272327220F220F220F20250DB4D3
S113122007FEFDCF8EB5E0912502F091260285A739
S1131230289A15E01093AE0310921802232B31F074
S113124015C20DB407FEFDCF8EB5D9C2E0902502BC
S1131250F090260267010894C11CD11CF70181811A
S113126090E0282F3327277030702230310509F49D
S113127091E080912702992321F1823009F025C160
S1131280F7019381E091B503F091B6038381981738
S113129009F01BC12230310509F017C180916F009C
S11312A08D7F80936F001092F902BF0180E00E944D
S11312B0D401109227021092740280E00E94320737
S11312C004C18823C9F4C7010E9440028823A1F005
S11312D01093B00282E08093B1021092B202F7013F
S11312E083818093B30280EB92E00E947F02882383
S11312F019F483E080932702009184001091850003
S1131300C7010E944002882311F0045E1C4F109311
S1131310E7020093E6028091840090918500980191
S1131320281B390B12161306A4F480917402882327
S113133069F490E08091F902882309F491E09923FB
S113134041F0C9010E942B0480E801C080688093A9
S11313507402F601808527819927582F4427332763
S1131360422B532B80912C02282F3327F901EE0FA7
S1131370FF1FE95FFC4F808191817091FA0284170D
S1131380950769F4F901E155FC4F8081871709F449
S113139067C0872F8F5F8093FA0280831DC000E0AF
S11313A010E080E090E0C7E0D3E0EFEAF3E0DF0193
S11313B0682F9C01888199818417950779F420937B
S11313C02C029091FA028C91891709F449C0892F53
S11313D08F5F8093FA028C9300E829C08081972F55
S11313E0981B091710F4092F122F6F5FC90101967A
S11313F011962296319685309105D1F66530B9F46F
S113140010932C02A12FBB27FD01EE0FFF1FE95FF4
S1131410FC4F518340838091FA028F5F8093FA02DC
S1131420FD01E155FC4F8083A954BC4F1C9290915F
S1131430FA02892F8F778F3779F40F3768F0EFEA44
S1131440F3E0292F207880818F67891320833196D8
S113145083E0E43BF807B9F780912C02282F332767
S1131460F6019281A22FBB27FD01E954FC4F808134
S113147080FF07C0FD01EF5FFC4F8081981729F1C1
S113148002C081608083AF5FBC4F9C93DFB6F89449
S1131490809100038330B0F4E0911803E80FE33047
S11314A008F0E350FF27EE0FFF1FE55EFD4F0081BC
S11314B01181F182E0828F5F8093000384E00E94B7
S11314C0900078018D2D99278FBFF0922602E0922B
S11314D02502C3C0892F8150833008F09CC08150FD
S11314E08230E0F43091AE033130C1F420E08091D9
S11314F0F902882309F421E0222381F02F9883E064
S113150080937F023093F90280918400909185004A
S11315106BE273E00E94160282E068C0933009F027
S113152042C08091AE03833009F097C00E94A801A5
S11315308823C9F128988FE88EBD0DB407FEFDCF2E
S11315408EB51EBC0DB407FEFDCF8EB5289A8091D2
S1131550810080648093810080E286BB80916F006B
S1131560806280936F0090916B02289888EC8EBD06
S11315700DB407FEFDCF8EB590669EBD0DB407FE7B
S1131580FDCF8EB5289A289882EC8EBD0DB407FE47
S1131590FDCF8EB586E08EBD0DB407FEFDCF8EB5B2
S11315A0289A84E023C0809118028150823000F58B
S11315B08091AE038530E1F40E94A8018823C1F034
S11315C0289882EC8EBD0DB407FEFDCF8EB583E066
S11315D08EBD0DB407FEFDCF8EB5289A80916F00A5
S11315E08F7D80936F001092060383E08093AE0397
S11315F090911802913041F48091AE038330B1F59B
S11316002F9A9093AE0325C0923039F58091AE03A2
S1131610833061F51EC0973001F50E94A80188232C
S1131620E1F090916B02289888EC8EBD0DB407FE12
S1131630FDCF8EB590669EBD0DB407FEFDCF8EB571
S1131640289A8091AE03853021F484E08093AE0320
S113165004C088E08093180204C080911802883086
S113166029F41092180282E00E94900080911802DE
S1131670882309F58091AE038530D1F48091060367
S11316808823B1F480912702882391F48091740215
S1131690882371F490E08091F902882309F491E0A1
S11316A0992331F00E94270780911802882319F4A6
S11316B088E00E9490008091F902823009F092C083
S11316C01092F902F0907F02F2E0FF1609F466C06E
S11316D023E0F21609F46AC081E0F81609F082C02A
S11316E02091E6023091E702809184009091850078
S11316F040917402403829F4109274020E94270722
S113170071C08901081B190B47FF03C0101611068D
S1131710ECF0C0917102D09172028091270288236B
S1131720A9F4CE010E947F029927882351F48CA545
S11317308E7F8CA7F0922702D093B603C093B50393
S113174029C09927F82E882329F102C065E0F62ED6
S113175020917402822F99278F77019759F420786A
S113176022602093740280E198E00E9439040E9470
S11317702B0438C027FF0AC0101611063CF480E879
S113178080937402C8010E942B0402C01092740258
S11317908F2D09C083E08093740224C01092270225
S11317A01092740280E00E9432071CC08091AE0344
S11317B0823019F4F092AE0313C08091180286307F
S11317C079F410921802289881E88EBD0DB407FEB2
S11317D0FDCF8EB51EBC0DB407FEFDCF8EB5289A85
S11317E00E94140C8FB7F894282F332780916A0233
S11317F0813061F081E080936A022FBF4ACB289A3E
S113180085E08093AE031092180230CF10926A02E2
S11318102FBFDF91CF911F910F91FF90EF90DF9039
S1131820CF90BF90AF9008958FB7F894282F3327A7
S113183080916A02882329F0806880936A022FBF0E
S1131840089581E080936A022FBF0E943F070895A4
S113185078941F920F920FB60F9211242F933F93F7
S11318604F935F936F937F938F939F93AF93BF93A4
S1131870EF93FF93E6E8F0E080819181208131814C
S11318808FB7F894992730937C0220937B0221E050
S1131890209306038FBF0E94140CFF91EF91BF9118
S11318A0AF919F918F917F916F915F914F913F91F4
S11318B02F910F900FBE0F901F90189578941F9240
S11318C00F920FB60F9211242F933F934F935F9370
S11318D06F937F938F939F93AF93BF93EF93FF93F4
S11318E080916F008D7F80936F0078949FB7F894F8
S11318F08091F902813019F482E08093F902892FF2
S113190099278FBF0E94140CFF91EF91BF91AF9163
S11319109F918F917F916F915F914F913F912F9103
S11319200F900FBE0F901F9018958FB7F894282F23
S1131930332780916A02815080936A02803811F0C3
S11319402FBF089581E080936A022FBF0E943F0752
S113195008951F938FB7F894992720916A022F5FF7
S113196020936A028FBF80917302882311F015E0DF
S113197023C0809118028823E1F48091AE03813062
S113198049F490E08091F902882309F491E09923C5
S113199081F005C0853019F489E090E00CC083E043
S11319A0809318020E94140C85E08093730210E067
S11319B003C085E090E0182F0E94950C812F992791
S11319C01F9108951F93FC018FE382878091170272
S11319D08F5F8093170283832FB7F8943327809106
S11319E06A028F5F80936A022FBF809173028823FB
S11319F011F015E00DC0F093FD02E093FC0281E0CC
S1131A00809373021092FB0283E00E94900010E026
S1131A100E94950C812F99271F9108951F93CF93AE
S1131A20DF93182FFA01A22F2D3118F086E090E0F1
S1131A308DC0EA01219689812181B0E09927582F30
S1131A4044273327422B532BCA0187749C7C81542F
S1131A50984809F4B1E0BB2349F4CA01807390703B
S1131A60816498688183892F99278983A35FA083E0
S1131A702FB7F894332780910A0290910B022FBF5D
S1131A808087892F992781872FB7F89433278091EE
S1131A900C022FBF99278483158213876683872FAF
S1131AA0992787838FB7F894282F332780911502BD
S1131AB0882371F482E08093150210920F022FBFE5
S1131AC0CF010E94E20C9927182F882399F00FC0A8
S1131AD02FBFF0936E02E0936D028FB7F894C82F76
S1131AE0DD272C2F80911502882391F406C080E015
S1131AF00E948906812F992729C081E080931502CD
S1131B0010926C020E949000CFBF80E090E01EC053
S1131B1080916F028F3F89F4E0910E02EE2369F009
S1131B2010C010920D0204C0FF27E159FD4F10822E
S1131B3010920E0280E090E002C085E090E02FBF9A
S1131B4005C080910D028F3F79F7EBCFDF91CF91E4
S1131B501F9108950F931F93CF93DF93182FEB01D9
S1131B60042FE82FFF27EE0FFF1FE851FD4F1182CE
S1131B70108210921302E091E802F091E90230978A
S1131B8021F08091190380FF0EC081E0809313023D
S1131B9003C08CE00E9490001123B9F4602FCE01A1
S1131BA00E94FF0012C020812D50332767817727C0
S1131BB0762F662786819927682B792BAF01838539
S1131BC00E940E0D882341F3E4CFDF91CF911F9142
S1131BD00F9108952F923F924F925F926F927F924E
S1131BE08F929F92AF92BF92CF92DF92EF92FF9229
S1131BF00F931F93CF93DF93CDB7DEB763970FB6E1
S1131C00F894DEBF0FBECDBF863009F437C28730EB
S1131C1090F4823009F4B7C0833030F4882341F162
S1131C20813009F080C37EC0843009F436C1853028
S1131C3008F0C8C1D4C0893009F4A0C28A3038F48D
S1131C40873009F44EC2883009F06DC334C38B3039
S1131C5039F08B3008F4A7C28C3009F064C356C342
S1131C6080911903882309F45EC390E011E02CC32A
S1131C7080911402882309F056C380910002809356
S1131C8046028091060290910702A0910802B09149
S1131C90090280934A02292F3A2F4B2F552720936C
S1131CA049029D0144275527209348028B2F9927E9
S1131CB0AA27BB27809347028FEF8093400280932B
S1131CC0410286E0809345028091E8029091E90206
S1131CD0892B09F028C34AE352E05093E902409368
S1131CE0E80282E180933A02809113028823B1F0E2
S1131CF01092130225E06FEF7FEF86E00E940E0D35
S1131D009927282F882351F081E0809313021092A1
S1131D10E9021092E802222309F005C381E08093CE
S1131D20140201C32FB7F894332780916C02809377
S1131D300F0282E0809315022FBF80910F02882347
S1131D4009F0F1C280916D0290916E020E94E20C42
S1131D50082F1127002309F4E6C280E00E948906B7
S1131D6020916D0230916E0280911302882309F054
S1131D70DAC26091E8027091E9026217730709F010
S1131D80D2C2402FCEC2809173021092730285306A
S1131D90E9F4A0900202B0900302C0900402D09033
S1131DA005020E94D600AB01BC01EE249601850118
S1131DB080E00E94B7008091000290910102079791
S1131DC009F0B1C280E00E949000ADC2863009F4EF
S1131DD0AAC2873009F4A7C280937302A4C22FB7A2
S1131DE0F894332780916A028F5F80936A022FBF31
S1131DF040917302413081F58091FB028F5F8093A3
S1131E00FB02863048F52091FC023091FD0280915E
S1131E1074028823C1F490E08091F902882309F4C4
S1131E2091E0992381F030937202209371024093E0
S1131E3074028BED91E10E9439040E942B041092EC
S1131E401E0383E004C085E080931E0382E0809338
S1131E5073020E94950C67C2109273020E94950C43
S1131E60F0901E030091FC021091FD02F80182859E
S1131E708F3309F058C280E00E94890680911302D2
S1131E80882309F050C26091E8027091E90260175A
S1131E90710709F048C24F2D44C28FB7F894282F18
S1131EA0332780910003882309F40CC2E0911803BE
S1131EB0FF27EE0FFF1FE55EFD4F008111812FBF4D
S1131EC0F8018285978126818F3309F045C06385A7
S1131ED07081892F9927582F4427822F9927482BBF
S1131EE0592B8FB7F894992720910A0230910B024D
S1131EF08FBF4217530721F04F5F5F4F09F046C071
S1131F00663009F043C0723109F040C0A1EEB2E07E
S1131F10F8013C9685E001900D928150E1F7DE01D5
S1131F201196E1EEF2E085E001900D928150E1F727
S1131F30DE011696FE01319685E001900D928150E6
S1131F40E1F78E81823311F0833301F5119A1298EF
S1131F5080E00E9490001AC0892F9927582F4427A7
S1131F60822F9927482B592B8FB7F89499272091C2
S1131F700A0230910B028FBF4217530719F04F5FCB
S1131F805F4F21F48FB7F89499278FBF9FB7F894C8
S1131F9080911803E82FFF27EE0FFF1FE55EFD4F2A
S1131FA0118300838F5F80931803833010F01092A5
S1131FB0180380910003815080930003892F99278F
S1131FC08FBF6BCF3FB73B87F89420907602309059
S1131FD0770240907802509079026624772488240E
S1131FE0AEE4AA2EF3E8BF2ECC24DD24EE24FF2495
S1131FF000E010E0222D332D442D552D662D772D34
S1132000882D90E00E9455132C873D874E875F876B
S1132010688B798B8A8B9B8B822E932EA42EB52E64
S11320202401350100E20E945314A22EB32EC42EC3
S1132030D52EA301920156954795379527952A0DDC
S11320403B1D4C1D5D1D57FF05C05F772F5F3F4F44
S11320504F4F5F4F2093760230937702409378027C
S1132060509379026B85862F99278FBF8FB7F89489
S113207099273093FF022093FE0293C08091690256
S1132080882361F5209111033091120340911303C9
S113209050911403EFB7F894FF27609121027091D7
S11320A022028091230290912402E0901A03F0907E
S11320B01B0300911C0310911D036E0D7F1D801FD7
S11320C0911FEFBF20931103309312034093130326
S11320D050931403109269020E94E8040E94D600EF
S11320E03AC00E94D6007B018C018FB7F8949927DF
S11320F0109275028FBF8091F60281FF14C1809106
S1132100EE029091EF02A091F002B091F102A801C9
S11321109701281B390B4A0B5B0BDA01C90120918B
S1132120F2023091F3024091F4025091F502281B1F
S1132130390B4A0B5B0B2F3F6FEF36076FEF4607E8
S11321406FE7560709F4EFC01216130614061506B6
S11321502CF0C801B7010E944406E5C02093110386
S113216030931203409313035093140381E080933C
S11321706902C801B7010E94E804D5C08FB7F8947A
S113218099271092F8021092F7021092AD03109260
S1132190AC0310921A02109219021092E0021092EB
S11321A0DF028FBFC0C02FB7F894332780917E021F
S11321B08093120282E0809316022FBF8091120254
S11321C0882309F0B0C0209A289A8091AE0388230E
S11321D009F075C08EEF91E0019701960197E1F740
S11321E016982F9886E090E0019701960197E1F701
S11321F0169A289883EC8EBD0DB407FEFDCF8EB5DC
S11322001EBC0DB407FEFDCF8EB5289A289882EC2B
S11322108EBD0DB407FEFDCF8EB588E08EBD0DB426
S113222007FEFDCF8EB5289A8EEF91E001970196B7
S11322300197E1F728988EEC8EBD0DB407FEFDCF13
S11322408EB58DE48EBD0DB407FEFDCF8EB5289AF4
S1132250289889EC8EBD0DB407FEFDCF8EB587ECB2
S11322608EBD0DB407FEFDCF8EB5289A289885EC57
S11322708EBD0DB407FEFDCF8EB580E88EBD0DB4C6
S113228007FEFDCF8EB5289A1092AF028BE08093A3
S11322906B02289888EC8EBD0DB407FEFDCF8EB579
S11322A08BE68EBD0DB407FEFDCF8EB5289A2F9A0E
S11322B081E08093AE0380E00E94D10634C00E9486
S11322C0140C31C02FBF2FC020911903812F8223FA
S11322D0C1F0E92FFF27EE0FFF1FE851FD4F4081AA
S11322E0518111821082812F809528232093190314
S11322F0992339F463E0CA010E94FF00110F91E0B1
S1132300E3CF9F5F983078F4110FDECF80911302F2
S1132310E82FFF27EE0FFF1FE851FD4F6081718109
S113232041E00E94AA0D63960FB6F894DEBF0FBE7B
S1132330CDBFDF91CF911F910F91FF90EF90DF9070
S1132340CF90BF90AF909F908F907F906F905F9051
S11323504F903F902F900895809115038F3FB1F0D7
S1132360282F3327F901E35DFD4F80818093150306
S11323708F3F11F48093B4038FEF80832F3F31F0AC
S1132380822F0E94EA0D81E090E0089580E090E0C1
S113239008950F931F930FB7F89414BE88E10FB6F6
S11323A0F89480936000109260000FBE4DE050E0FE
S11323B06FEF70E08DE292E00E9440158FEF809302
S11323C015038093B40356985E9854985C98809152
S11323D06F008F7D80936F00209A289A279A2F98F8
S11323E00E9A169A80E892E0909326028093250232
S11323F010927A028AE58093700281E080938100D2
S113240080E28093B60083E08093B10080918400E1
S1132410909185004AE72091840030918500281727
S1132420390708F44150442311F0C901F4CF9091C5
S1132430B2008091B2008917E1F3209184003091B9
S113244085009091B2008091B2008917E1F38091E8
S1132450840090918500821B930B4096F5E096953D
S11324608795FA95E1F790931703809316031092DA
S1132470B1008091B10080938100809181008093AC
S1132480B6001092B20010928500109284008FEF73
S113249087BB87B386BB8091B6008571E1F70A9A42
S11324A0099A089A129A119A109A18B88FEF87B954
S11324B00C981498109285001092840080916F00FB
S11324C0816080936F0080918100887F8260809317
S11324D081000E94AC118823E1F78FEF80937D0285
S11324E080E00E945D01182F8091B6008062809385
S11324F0B6008091B60081FDFCCF82E08093B000ED
S11325008091B60080FDFCCF83E08093B100809180
S1132510B60083FDFCCF86EE8093B30080917000FB
S11325208260809370000E945C048091000290910C
S113253001020196AA27BB27809376029093770223
S1132540A0937802B09379028FE193E090931C02F8
S113255080931B028F9690931E0280931D028DE739
S113256093E09093200280931F028FEF9FEF90934C
S113257008038093070390930A03809309039093BD
S11325800C0380930B0390930E0380930D0390939D
S1132590100380930F03809100028295807F8093C3
S11325A017028FEF80936F020E94AC118823E1F72A
S11325B0802F99278FBF78940E94A90C8FB7F89425
S11325C0482F552757C080917000992783709070C9
S11325D0892B19F4E5E0F0E014C08091B6008A710B
S11325E0E1F78091B3009091B200891B8C3038F0F0
S11325F08091B200853F18F4E3E0F0E002C0E2E02D
S1132600F0E080916E00867009F580916F008E7203
S1132610E9F4809171008E72C9F40CB407FC16C001
S11326208091C100887191F48091C900887171F41E
S11326308091BC0082FD0AC080917A0087FF03C0AC
S113264081E090E005C085E090E002C080E090E089
S113265023B78E1708F4E82FFF27E453FF4FE491C4
S1132660207F2160E22BE3BF78948895F89483B7A8
S11326708E7F83BF809115038F3F09F4A4CF282F49
S11326803327F901E35DFD4F8081809315038F3F6C
S113269011F48093B4038FEF80832F3F09F493CF19
S11326A04FBF822F0E94EA0D89CFACE2B0E0EBE588
S11326B0F3E10C940915222E332E442E552E662E4A
S11326C0772E882E992EFE013196A8E01192AA95B4
S11326D0E9F729823A824B825C826D827E828F8204
S11326E09886FE013996B8E01192BA95E9F7A98661
S11326F0BA86CB86DC86ED86FE860F87188B8981A9
S11327009A81AB81BC8189A79AA7ABA7BCA77C019E
S11327108D018FEF9FEFA0E0B0E0E822F9220A23B9
S11327201B2389A59AA5ABA5BCA51D01442455244A
S113273089859A85AB85BC858DA39EA3AFA3B8A7D5
S11327405C016D018FEF9FEFA0E0B0E0A822B922F9
S1132750CA22DB228DA19EA1AFA1B8A53D01882488
S11327609924C801B701A60195010E94EA1469A33E
S11327707AA38BA39CA3C801B701A40193010E946F
S1132780EA147B018C01C201B101A60195010E94EA
S1132790EA145B016C01C201B101A40193010E941E
S11327A0EA143B014C01EA0CFB1C0C1D1D1D89A104
S11327B09AA1ABA1BCA19D01442755272E0D3F1D15
S11327C0401F511F2A153B054C055D0540F480E070
S11327D090E0A1E0B0E0680E791E8A1E9B1ECA013B
S11327E0AA27BB27860D971DA81DB91D8D8F9E8F07
S11327F0AF8FB8A3A9013327222789A19AA1ABA13E
S1132800BCA1A070B070280F391F4A1F5B1F298F0D
S11328103A8F4B8F5C8FA98CBA8CCB8CDC8CED8C73
S1132820FE8C0F8D18A1FE01719698E011929A9575
S1132830E9F7ED8AFE8A0F8B188F2D813E814F8137
S113284058856DA17EA18FA198A50E94EA143B0131
S11328504C012D853E854F85588969A57AA58BA5A0
S11328609CA50E94EA142D893E894F89588D260F14
S1132870371F481F591F260D371D481D591D2D8B05
S11328803E8B4F8B588F6D887E888F88988C2A2D2D
S11328903B2D4C2D5D2D662D772D882D992DE2E154
S11328A0AC960C942515A0E1B0E0E9E5F4E10C94B4
S11328B00915222E332E442E552E662E772E882E61
S11328C0992E002309F466C088E0FE013196119226
S11328D08A95E9F729833A834B835C836D837E83EE
S11328E08F829887E0E2E01B1E16CCF52D813E8195
S11328F04F815885602F772767FD7095DA01C901EC
S1132900062E04C0B695A795979587950A94D2F795
S11329108D879E87AF87B88B04C0220F331F441F57
S1132920551FEA95D2F789819A81AB81BC8104C095
S1132930B695A795979587956A95D2F7282B392B45
S11329404A2B5B2B29873A874B875C8729843A84F7
S11329504B845C846D847E848F8498881BC01D8620
S11329601E861F86188A2E2F332727FD3095309513
S113297021953F4F8D819E81AF81B88504C0B69566
S1132980A795979587952A95D2F789879A87AB87D4
S1132990BC87DCCF222D332D442D552D662D772D6C
S11329A0882D992DE2E160960C942515AA1BBB1B7A
S11329B051E107C0AA1FBB1FA617B70710F0A61B3B
S11329C0B70B881F991F5A95A9F780959095BC015C
S11329D0CD010895629FD001739FF001829FE00DA5
S11329E0F11D649FE00DF11D929FF00D839FF00D8A
S11329F0749FF00D659FF00D9927729FB00DE11D36
S1132A00F91F639FB00DE11DF91FBD01CF01112412
S1132A1008952F923F924F925F926F927F928F927E
S1132A209F92AF92BF92CF92DF92EF92FF920F9359
S1132A301F93CF93DF93CDB7DEB7CA1BDB0B0FB663
S1132A40F894DEBF0FBECDBF09942A883988488820
S1132A505F846E847D848C849B84AA84B984C884B6
S1132A60DF80EE80FD800C811B81AA81B981CE0FAD
S1132A70D11D0FB6F894DEBF0FBECDBFED01089592
S1132A80DC0101C06D9341505040E0F70895FFCF41
S1132A900100E803000055130880010022FFFFFF36
S1072AA0FFFFFF0130
S9030000FC
